:020000040800F2
:10000000902000240D3300088B820008F93200088C
:10001000F9320008F9320008F93200080000000047
:100020000000000000000000000000005533000840
:10003000F932000800000000DD340008454C0008DB
:100040004D3500084D3500084D3500084D35000888
:100050004D3500084D3500084D3500084D35000878
:100060004D3500084D3500084D3500084D35000868
:100070004D3500084D3500084D3500084D35000858
:100080004D3500084D3500084D3500084D35000848
:100090004D3500084D3500084D3500084D35000838
:1000A0004D3500084D3500084D3500084D35000828
:1000B0004D3500084D3500084D3500084D35000818
:1000C0004D3500084D3500084D3500084D35000808
:1000D0004D3500084D3500084D3500084D350008F8
:0400E0004D35000892
:1000E8007BB972B90029BEBF00204FF0004106E07D
:1000F80008BF00281CBF6FF000414FF0FF3000F030
:1001080057B8ADF1080C6DE904CE002909DB002BC6
:100118001ADB00F069F8DDF804E0DDE9022304B039
:100128007047404261EB4101002B1BDB00F05CF89B
:10013800DDF804E0DDE9022304B0404261EB41014F
:10014800524263EB43037047524263EB430300F0B0
:100158004BF8DDF804E0DDE9022304B0404261EB2E
:1001680041017047524263EB430300F03DF8DDF86C
:1001780004E0DDE9022304B0524263EB4303704715
:1001880053B94AB9002908BF00281CBF4FF0FF31F6
:100198004FF0FF3000F00CB8ADF1080C6DE904CE5B
:1001A80000F022F8DDF804E0DDE9022304B070472E
:1001B800704700BF10F8012B11F8013B012A28BF36
:1001C8009A42F7D0D01A7047034611F8012B03F86A
:1001D800012B002AF9D17047034613F8012B002A96
:1001E800FBD1181A013870472DE9F0478C468E4626
:1001F800089E154604461946002B40F0D0807245EB
:1002080047D9B2FA82F74FB1C7F120030EFA07FCBB
:1002180020FA03F3BD4043EA0C0CBC404FEA154EEC
:10022800A8B2BCFBFEF8230C0EFB18CC08FB00F9A7
:1002380043EA0C43994528D9EB1808F1FF3204D258
:10024800994502D9A8F102022B44A3EB0903A4B2F1
:10025800B3FBFEFC0EFB1C330CFB00F044EA03442A
:10026800A04214D92C190CF1FF3304D2A04202D9B0
:10027800ACF102032C44241A43EA02401EB1FC40AC
:10028800002334607360BDE8F0874246DDE76346CB
:10029800F1E7002A79D0B2FA82F3002B3FD0194651
:1002A800C1F1200302FA01F52EFA03F20EFA01FE5B
:1002B80020FA03F343EA0E034FEA154E00FA01F45D
:1002C800B2FBFEFCAFB20EFB1C201A0C0CFB07F8AD
:1002D80042EA004290455AD9AA180CF1FF3004D2DC
:1002E800904502D9ACF102002A44A2EB08029BB265
:1002F800B2FBFEFC0EFB1C220CFB07F743EA024391
:100308009F4246D9EB180CF1FF3204D29F4202D922
:10031800ACF102022B44DB1B42EA004202E0AEEBE6
:10032800020301224FEA154EAFB2B3FBFEFC200CCC
:100338000EFB1C330CFB07F840EA034398452AD907
:10034800EB180CF1FF3004D2984502D9ACF1020049
:100358002B44A3EB0803A4B2B3FBFEFC0EFB1C3337
:100368000CFB07F744EA0344A74216D92C190CF1F1
:10037800FF3304D2A74202D9ACF102032C44E41B98
:1003880043EA00400F46114678E71F2188E7604698
:10039800ABE76246BFE76046DBE76346EFE77345D6
:1003A80006D916B9002108466DE7C6E9000EF9E737
:1003B800B3FA83F787B9734501D3824207D8841A01
:1003C8006EEB030301209C461EB900215BE738460B
:1003D800FAE7C6E9004CF8E7C7F1200CBB4022FA5F
:1003E8000CF51D4320FA0CF12EFA0CF30EFA07FE59
:1003F80041EA0E014FEA154900FA07F4B3FBF9F890
:100408001FFA85FE09FB18300B0C08FB0EFA43EAAD
:1004180000439A4502FA07F240D9EB1808F1FF3079
:1004280004D29A4502D9A8F102002B44A3EB0A038F
:1004380089B2B3FBF9F809FB183308FB0EFE41EA51
:1004480003418E452CD9691808F1FF3304D28E4533
:1004580002D9A8F10203294443EA0040A0FB02980C
:10046800A1EB0E014145CE46434602D306D14C4589
:1004780004D2B9EB020E68EB05030138002EA4D0B4
:10048800B4EB0E0261EB030101FA0CFC22FA07F34C
:100498004CEA0303F940C6E9003196E74046C5E750
:1004A8004346D9E7000000002DE9F047044688B02C
:1004B8008846174608F0ECFD0A220023FFF760FE85
:1004C800B8F1010F06460D4607D102460B462046F5
:1004D800274906F0C3FF002011E07F682548394608
:1004E800FFF768FE70B139462348FFF763FE48B14D
:1004F80020463A46214906F0CDFF6FF0040008B0C7
:10050800BDE8F0873046294617A3D3E90023FFF753
:10051800E7FD06460D4610461946194A0023FFF71F
:10052800DFFD80460F46104619464EF6602200232E
:10053800FFF7D6FD82468946104619464FF47A726F
:100548000023FFF7CDFDCDE902A9CDE90623CDE9CA
:10055800040132462B460B492046CDE9008706F0B8
:100568007DFFB8E7AFF30080005C260500000000BF
:1005780092A40008A3A40008A6A40008AFA4000839
:1005880080EE3600C7A4000830B50446EFF31185A5
:10059800102383F31288BFF36F8F044B0FCB84E8CB
:1005A8000F0085F31188BFF36F8F30BDC0000024A2
:1005B80001281FB50C4605D004281DD06FF0150082
:1005C80004B010BD08F064FD42F210720023FFF77A
:1005D800D7FD104B5A43C4E90001A2606846FFF7F3
:1005E800D3FF6946204606F0EFFB18B90A4B0FCB3C
:1005F80084E80F000020E3E708F04AFD42F2107299
:100608000023FFF7BDFD034B5A43C4E90001A26074
:10061800F0E700BFA0860100009A000801287FB516
:100628000D462CD18A68174B9A4228D808F030FD1D
:1006380042F210720023FFF7A3FD4042124B61EB18
:1006480041015343CDE900016846029300F0C4F824
:100658002946684606F0B8FBEFF31186102383F3AA
:100668001288BFF36F8F094D9DE80F0085E80F00D2
:1006780086F31188BFF36F8F002004B070BD6FF050
:100688001500FAE7FFC99A3B6079FEFFC000002415
:10069800014B1B68184700BF0000002430B5044612
:1006A80085B00D4610220021684608F0D2FD0223CD
:1006B8002A4621468DF802306846034B019305F01F
:1006C800E7FE05B030BD00BF990600082DE9F843E4
:1006D80040F26C73446905690646E117E41805F1B0
:1006E8000105C76841F10001022D07F1FF378CBFF2
:1006F80000230123E41A61F1000100294EDA6FF4A6
:10070800C7704FF4C8720023201861F10001FFF789
:10071800E7FC254B4FF03C0E032D03FB004402463B
:1007280034BF09206FF00200D6E90083B66805449B
:100738004FEAE37C99469920634645430520C6FB6A
:100748000E93A9FB0EC602350EFB0366A30840F202
:100758006D1E1CEB080C0EFB043346EBE8763B449D
:100768006427B4FBF7F4B5FBF0F51B1B0F4C2B44C7
:10077800A2FB042004FB010198180D4A41F1000373
:1007880080180C4A63F10003A0FB020102FB03116D
:1007980010EB0C0041EB0601BDE8F8834FF4C8727A
:1007A80000232046B3E700BF70FEFFFFB13A020006
:1007B8009405F5FF8051010010B5FFF787FF00246D
:1007C80002460B46034902F0CFFE44501046194634
:1007D80010BD00BF0C0000001F4B70B582689A4224
:1007E80015DD0133D0E9001692FBF3F301294FEA36
:1007F800E37476F100051CDAC91844EB0604C0E975
:100808000014164901FB03238360012070BD002AF0
:10081800FBDA9B1A124ED0E90041B3FBF6F300292C
:1008280010DA01F100459C4275F100050ADA002052
:10083800ECE7CD439D426FF00045A5EB0605A541C9
:10084800DADAF4E7E41A06FB032261F100018260B8
:10085800C0E90041D9E700BFFFC99A3B003665C42B
:1008680000CA9A3B08B500F0B7F80A4901220023EC
:10087800416109490361C0E900220A6007490A6029
:10088800074A1360074A1360074AC0E90233136036
:1008980008BD00BF80A60008200000241C0000241A
:1008A800A8040024A4040024A00400242DE9F0478F
:1008B80081468846174600F08FF8C36804461BB97E
:1008C80043691A78002A3ED10023E36063684B45E8
:1008D80058F8232008DB314B6361204600F060F8AC
:1008E8004FF0FF30BDE8F087511C616192F800A01D
:1008F800BAF12D0FEFD1951C656156782D2EA660A3
:1009080004D1927872B901336360E4E756B9234D94
:1009180051463846656108F0B4FC0028DDD05646DB
:10092800C4F808A03146384608F0ABFC3A2E00D08F
:1009380070B92B7813B9636801336360204600F0FF
:100948002FF83F20CEE75D1C45611E788660E9E7F9
:1009580043783A2B0BD0002323612B7813B96368B3
:1009680001336360204600F01BF8A068BAE72B78D3
:100978000A4A33B9636801339945636004DD58F85E
:100988002350C4E90452EAE7626120463D783A2DD3
:10099800D5D100F005F82846A4E700BF80A60008D6
:1009A8000168084A084B11604168084A116081686B
:1009B800074A1160074AC168116002691A6003F0AA
:1009C800C3B800BF20000024A00400241C00002499
:1009D800A8040024A404002400487047040000244C
:1009E800054B00205A6822F002025A605A6822F029
:1009F80001025A60704700BF0010005C08B54168EA
:100A080005480C3183681B681BB1984700EAE07001
:100A180008BD6FF05700F9E7A0940008192810B531
:100A280002D90024204610BD044B53F8204020462C
:100A380008F0FCF80028F5D1F3E700BFC49B0008D4
:100A480008B502F0C5FD02F095FD0C4B0C4A1A6082
:100A58000C4AD36823F0070343F00203D3600A4B20
:100A68001A6841F20303B3EB124F06D1074AD2F8D2
:100A7800083143F00103C2F8083108BD58000024CA
:100A88000090D003004802580010005C008000511C
:100A980010B5044604F0A2F903490246204606F0C0
:100AA800DDFC002010BD00BF3DA4000837B513468B
:100AB800002205460A21019201AA586801F0D2FCD9
:100AC800019C4CB920EAE0700A21A0FB010108F062
:100AD80022FA204603B030BD22460349284606F0D4
:100AE800D9FC019CF5E700BF69A40008034A044942
:100AF80008B506F0B3FC002008BD00BF59A50008E2
:100B080060A50008002307B50090694604488DF8E1
:100B1800043005F08FF89DF8040003B05DF804FB7D
:100B28001970000838B50446EFF31185102383F3D4
:100B38001288BFF36F8F04F033F9024685F31188EA
:100B4800BFF36F8F0649204606F088FC204605490A
:100B580006F084FC2146044805F086F8002038BDDC
:100B6800A2A50008C1A50008750B000870B58EB0D5
:100B780004460D46D0F8A06008F0F3F8224A034670
:100B880002F0F2FC1158214A2148002B18BF1A46DE
:100B9800234600921F4A8C4218BF024628461E4927
:100BA80006F05CFC28461D49D4E90A23CDE9002358
:100BB80094F90E30A28906F051FC06A9202220469D
:100BC80004F0B2FBA36E02461549284606F046FC1F
:100BD80005A9204608F0D3F8024628B1114928464D
:100BE80006F03CFC0EB070BD059B64222846F11A45
:100BF8004A4300910C49B2FBF6F2CDE90162324654
:100C080006F02CFCEEE700BF08000000CBA50008AA
:100C180036B00008CEBF0008CEA50008DAA5000847
:100C280006A600081DA600084AA6000830B591B01F
:100C380004462022002108AD284608F00AFB1A22A3
:100C48002021284608F005FB2146104805F00CF83D
:100C580007AA4FF400610E4808F085F8079A642344
:100C68002046C2F5006100954B43DB0A05934FF41B
:100C78000063CDE90313CDE9013206490023044A94
:100C880006F0ECFB002011B030BD00BFA10C00083D
:100C9800501300249BA6000870B5044688B00D4682
:100CA800D0F8A06007A908F06AF8024628B10F49F1
:100CB800284606F0D3FB08B070BD204608F051F86E
:100CC800079B64220096F11A4A43B2FBF6F2CDE97B
:100CD8000131074B0749002818BF03462846CDE9CC
:100CE8000362224606F0BAFBE5E700BF1DA600082E
:100CF800CBA50008E4A6000838B51346054610221F
:100D08000021586805F0D2FA0446FFF7FBFE38B90F
:100D180022460E49284606F0BDFB6FF0150038BD87
:100D28000B4B02F021FC1B589C4204D10949284670
:100D380006F0B0FBF1E7204604F0B4FC2846224652
:100D4800054906F08BFB0020E9E700BF48A700082B
:100D58000800000063A700088BA7000838B51346F1
:100D6800054610220021586805F0A0FA0446FFF74E
:100D7800C9FE38B922460E49284606F08BFB6FF0AB
:100D8800150038BD0B4B02F0EFFB1B589C4204D1F9
:100D98000949284606F07EFBF1E7204608F03EF8B0
:100DA80028462246054906F059FB0020E9E700BF1E
:100DB80048A7000808000000CAA70008F0A7000814
:100DC80038B51346054610220021586805F06EFA1A
:100DD8000446FFF797FE38B922460E49284606F022
:100DE80059FB6FF0150038BD0B4B02F0BDFB1B58CB
:100DF8009C4204D10949284606F04CFBF1E72046FD
:100E080002F052FB28462246054906F027FB00203F
:100E1800E9E700BF48A70008080000002BA8000861
:100E280050A8000810B50C46002106F0CEFD00B110
:100E380000680023024A2060E360C4E9012310BD72
:100E480070A9000810B50C46002106F0C2FD00B1DB
:100E580000680023024A2060E360C4E9012310BD52
:100E680070A9000870B505465068144606F0C0FD24
:100E7800064640B962686FF012040F49284606F02A
:100E880009FB204670BD07F0D1FE30B162680B49FE
:100E98002846002406F0D4FAF3E7304607F0BDFEF2
:100EA8006268044628B103460549284606F0F2FA66
:100EB800E7E70449ECE700BF88A800089DA80008F8
:100EC800BFA80008ECA800082DE9F04F8FB0044631
:100ED8008846914601A804F00FF8019F2D4A082181
:100EE80007EB4017204606F09EFA019EBE4203D348
:100EF80000200FB0BDE8F08F35680DB12B7833B9FD
:100F080002AD3346244A302102A805F00DF9B8F1A4
:100F1800020F07D1D9F80410284608F0F0F908B9EB
:100F28002036E3E72B461D4A0821204606F07BFAC7
:100F3800304607F07BFE1A4A1A4B0821002808BFE2
:100F48001346194A204606F06EFAF369002BE7D0DB
:100F58001D68002DE4D02B68002BE1D0AB464FF084
:100F6800000A124A0821204606F05DFA2B6853450C
:100F780005D80F4A0821204606F055FAD0E75BF855
:100F8800043F08210B4A20460AF1010A06F04BFAF1
:100F9800ECE700BF1FA9000829A900082EA900082E
:100FA80016A9000810A9000896A8000833A9000887
:100FB8007FA600082FA90008F7B5137806460F4644
:100FC80015463A2B14D1541C23783A2B28D10134D6
:100FD8000A2201A9204605F0F5F8019A034638606F
:100FE800A24217D01078A8B93C2B15D915490EE0A4
:100FF8000A2201A9284605F0E5F8019CB860AC4230
:1010080008D023783A2B05D1172807D90E4930463E
:1010180006F040FA6FF0150003B0F0BD0134D3E7D5
:101028000A2201A9204605F0CDF8019B7860A34269
:10103800F0D01A783A2AEDD13B2801D90349E6E7DE
:101048005C1CC5E7D8A90008BAA90008C8A9000807
:101058002DE9F04194B00D460446012006A9174633
:10106800FFF7A6FA0BA906A804F0B0FF032D55D187
:101078007D680A2205A9284605F0A4F8059E804641
:10108800B54215D032782D2A12D101360A2205A987
:10109800304605F097F8059B9E4209D01A782D2A0C
:1010A80006D1451E0B2D0CD92E49204606F0F2F923
:1010B800204606F024FA6FF01505284614B0BDE85E
:1010C800F0815E1C0A2205A9304605F07BF8059BD5
:1010D8009E42EDD01B78002BEAD1431E1E2B01D96E
:1010E8002149E2E7A8F26C73BA680E90CDE90F5374
:1010F8000BA92046FFF760FF0028D9D10BA8FFF7FE
:101108005BFBB1F1FF3F08BFB0F1FF3FCDE906013E
:1011180008D11649204606F0BDF9CCE7022DC7D103
:101128007A68E5E700230893012006A9FFF776FA15
:10113800054628B102460E49204606F0ABF9BAE743
:101148000B9B2046109A03930C9B02F26C72094980
:1011580002930D9B01930E9B00930F9B013306F0A6
:101168007DF9AAE7E8A90008F7A9000804AA000879
:101178002DAA000844AA000810B592B00446012020
:1011880004A9FFF715FA09A904A804F01FFF099B91
:101198000E9A204603930A9B02F26C720649029348
:1011A8000B9B01930C9B00930D9B013306F056F9A2
:1011B800002012B010BD00BF44AA00082DE9F0417C
:1011C80014468846074610220021606805F06EF82C
:1011D800B8F1020F06461CD90A220021A06805F0C2
:1011E80065F8C5B22A461F49384606F037F9B8F1FE
:1011F800030F1DD8102D0ED0202D0FD0082D0FD184
:101208003278D2B200231849384606F027F9002070
:101218000CE02025E6E7328892B2F3E73268F1E77E
:101228003846124906F01AF96FF01500BDE8F0814A
:101238001022E068002105F09FF80B46024604469C
:101248000B49384606F00AF9102D06D0202D07D094
:10125800082DE5D1E4B23470D9E7A4B23480D6E7DA
:101268003460D4E793AA0008BEAA0008A8AA000818
:10127800D1AA00082DE9F047002386B04FF0FF35CA
:10128800914601930122524B20262C460746884658
:101298001A60FFF7E7FA4F4A49464046FFF706FB50
:1012A800431C06D1691C41D14B49384606F0F2F877
:1012B80017E073281AD0772828D0612811D1DFF8D1
:1012C8001CA101AA1021DAF8000001F0CBF8019B5B
:1012D8000546002BDFD0DAF800204149384606F0F1
:1012E800D9F86FF0150006B0BDE8F087DFF8ECA07C
:1012F80001AA0021DAF8000001F0B4F8019B0446C5
:10130800002BC8D0DAF800203649E7E7DFF8CCA090
:1013180001AA0021DAF8000001F0A4F8019B0646B2
:10132800002BB8D0DAF800202F49D7E7621C01D18A
:101338002E49BAE75FFA86F8C6F3C406A8F108038F
:10134800DBB2182B04D82A4A22FA03F3DB0724D489
:1013580042462849384606F081F8C2E7B8F1100F2E
:1013680022D0B8F1200F25D0B8F1080F01D10A78A2
:101378001A70314433444218102AEFD9102CA14670
:10138800294605F1100528BF4FF0100902AA384672
:10139800A4EB09044B4600F05FFFB4B1A642EDD8B8
:1013A80002AB2946701BE6E70A8892B21A70120A45
:1013B8005A70DEE70A68C2F3072C1A70120C83F819
:1013C80001C09A70120ADA70D3E720468BE700BF93
:1013D8001C00002421AB000828AB0008A00400244E
:1013E800E7AA0008FAAA00080DAB000845AB0008F8
:1013F800010100015FAB000870B50E4E04460D46B2
:10140800337829B123B10C49BDE8704006F042B8E1
:1014180083F0010333702BB10849204606F01EF80B
:1014280001233370294620460022BDE8704006F0AB
:1014380080B800BF2009002479AB0008B4AB0008CD
:101448002DE9F04105460C468F18DFF8EC803B4E3D
:10145800A74201D1BDE8F08198F8002014F8013BBB
:10146800182A22D1112B20D1354C0026354928467F
:10147800226888F8006005F0F1FF28463146FFF73A
:10148800BBFF314B18780028E4D1304A2368116833
:10149800042B2EDC08B12360116013F003012FD157
:1014A800126813681BBA1360D4E7A3F1300288F8F6
:1014B8000030092A04D923F02002413A052A04D829
:1014C8003168234A5354013131603368022BBFD14C
:1014D800102200211E4804F0E9FE1E4A136803F892
:1014E800010B1360164A136801331360002333603D
:1014F800AEE70868043B00BA41F8040B0120C7E7CF
:101508005B4203F0030358BF5942022904D1126811
:1015180013885BBA9BB2C6E703299BD1106802689F
:101528001104C2F3074302F47F4201F47F010B4325
:10153800134303608EE700BF210900245C050024E3
:1015480060050024DEAB000822090024640500249D
:1015580023090024680500242DE9F84300230D46DB
:1015680026498046264E17460B60264933700B6085
:10157800012DB94657F8044F1DD9022222492046A9
:1015880007F08CFE70B9A378003B18BF01231C44F8
:1015980002221E49204607F081FE28B90123337034
:1015A800013DE5E70023F2E717492046FEF702FE72
:1015B800C0B909F104090022D9F80400114604F061
:1015C80075FE0022124B11461860D9F8040004F089
:1015D8006DFE104B104918604046FFF70DFF0020C4
:1015E800BDE8F88323782D2BE5D16378002BE2D072
:1015F80022460A49404605F031FFD1E75C05002440
:101608002209002460050024F8AB0008FBAB0008A1
:10161800680500246405002449140008FEAB00088E
:1016280013B5094807F002FB50B1002401233A2200
:1016380005490648009400F063FE204602B010BD3C
:101648006FF01200FAE700BF60960008649800087F
:1016580010B54468A360C4E90012426840211346EB
:1016680053F8404B516302F1380153620023C2E939
:10167800041308211363C2F8B8301162C2E90A33AF
:10168800C2E90633A36823B19B6C13B10449204611
:101698009847A3689B6A0BB120469847002010BD65
:1016A800DF70000810B581680446183101F066F94A
:1016B800A1682046024A1831BDE8104001F0FEB882
:1016C80079AD000838B583680446D3F88032DB0565
:1016D8001AD4406803685B689847054620B9E068F3
:1016E80006F06DFDA3681D75A3685B6C13B12946F0
:1016F80020469847A368002201F036FFC3F8A422C9
:10170800034B185801F0D0FE6FF00F05ECE700BF4F
:1017180008000000014905F090BD00BF7FA6000841
:101728002DE9F04FA7B004465422002111A807F074
:1017380090FD00232046CDE90533A3685C3302936E
:1017480006F070FA204606F0B4F910B96069FFF7A0
:10175800E1FFA06814220021002618304FF0FF385E
:1017680007F077FD204606F0F6F8A168E068B24673
:10177800B1F8542011AF5C31B3463546B14606F096
:10178800E3FC204606F044FD0396DDE90532012A14
:101798006BD0132B6CD8B8F1000F2AD1BBF1000F16
:1017A8000AD0204606F055FDA268142311A95C3220
:1017B8000DEB030005F06FFFB9F1000F0CD099F89D
:1017C8001130FE2B08D1059B26AA02EB830252F8A2
:1017D800542C0AB101330593A068436A002B40F0EA
:1017E800B580C6B1C369B3422BD000F118050D9678
:1017F80022E00223029A394606A805F04CFF7A68CF
:1018080006990346029231B101290AD148B16A4AC0
:10181800204606F0B5FA6FF00705284627B0BDE860
:10182800F08F059B002B32D0386801F0D7F898B1BB
:1018380066B1A5680D9618350CAE0FCE0FC5336886
:101848002B6020460125FFF72DFFE6E75B4A0121C3
:10185800204606F095FADEE7059BC3B13A682946AB
:10186800204601F057FA022809D1059B132B95D978
:10187800069B022B92D1524B0121524AC8E70328FA
:1018880005D0059B4FF0010B013305937DE7039BC2
:101898002BB907AA3968484605F0D3FF054604372F
:1018A80008F1FF38A5B3EB68BBF1000F08D0FBB116
:1018B800204606F0B7F9204606F012F9424AC6E774
:1018C800B3B1A368AE46DDF814A003F1180CBEE866
:1018D8000F00ACE80F00DEF80030CCF80030AB6841
:1018E80033B96B7CFE2B04BF95F8108008F1FF38E4
:1018F800D5F804C0BCF1000F08D0AE460CAEBEE867
:101908000F000FC6DEF8003033606646A94603E0D4
:10191800059B63B101230393B8F1000F03D1069B24
:10192800022B7FF432AF059B013305932DE7A368A3
:10193800DB6A13B1DB68002BECD1244B0121244A6C
:1019480020460093119B06F01BFAE3E7059D90F8EB
:101958002830A5EB0A05BBB190F829104FF6FF72A5
:10196800FF2918BF0A469D4202D313449D420BD952
:1019780083690121174A204606F002FA20466FF0D3
:101988001505FFF78FFE48E7012105F075FCA068F3
:1019980005F066FCA36811AA29465B6A204602EB9B
:1019A8008A0298470546A06805F05EFC0021A068F9
:1019B80005F062FC31E700BF87AD00089BAD000869
:1019C800FCAD000820BB0008B9AD0008E8AD000870
:1019D800EFB0000820AE0008F7B5044680680D4651
:1019E800817D002949D1D0F880325A0504D505F007
:1019F8004EFCE06806F07AFBE368DB6873B9002DFB
:101A08003BD0A66806F15C07384605F023FC0028A1
:101A180035D0394606F5AE70FEF7D6FBA2680DF153
:101A280006032946E0685C3206F063FB58B9A068F3
:101A380000F5AE715C30FEF7C7FBA0685C3005F0BE
:101A480009FCADF80600204606F0E5F8A368D3F8CF
:101A58007C329B0603D50B49606905F0EEFB2046F6
:101A680000F066FDA268BDF806302046A2F85630A0
:101A7800A268A2F8543006F033F803B0F0BD86F837
:101A88005C01CBE7289A000810B502228368044657
:101A98001A7583689B6CBBB905F0A6FB8368D3F8FD
:101AA8008032DB040BD50321084B094A06F068F99C
:101AB800A0686FF4805100F5207005F0AFFB204658
:101AC800BDE8104000F0B8BE10BD00BF3BAE000836
:101AD80030A900082DE9F04F0023B1B0044609935E
:101AE800A36860689E6C026815691EB3DF6C1022DB
:101AF80009AB1BA9A847099BCBB10121A06805F038
:101B0800BBFBA06805F0ACFB3B46099A1BA9204625
:101B1800B047A06805F0A8FB0021A06805F0ACFB61
:101B2800A3689B6C002BDBD12046FFF7ADFF31B0DB
:101B3800BDE8F08F09AB01220DF12301A847099BED
:101B4800002BF4D09DF923109DF823300029A268BA
:101B5800C6DB517D032900F20C83DFE811F0040095
:101B6800800297020A030D2B43D00A2B41D0B2F80A
:101B78008012092B21F0FF01A2F880126DD028D81D
:101B8800002B00F00281082B00F0EC81A268D2F84B
:101B98007C12890740F1F980013B162B00F2F58091
:101BA800DFE813F0C402FF010302FB01BE021C02BE
:101BB800F300F300F300F30020022402F3003902DB
:101BC800F3003E02F300F300F300F3004002F300D9
:101BD80055021B2B3DD07F2B00F0D181A3F12002B1
:101BE8005E2AD3D80121A06805F051FB9DF8231087
:101BF800BBE0D2F88012C9B221B1D2F88012C9B2C2
:101C08008B42C3D1B2F8801263F30701A2F88012A5
:101C1800A568AB7D012B06D16069FFF77BFDA36842
:101C280002229A7583E7B5F8541061B9284605F081
:101C38002EFBE06806F05AFA6069FFF76BFD204654
:101C4800FFF722FF4CE72046FFF76AFDC5F8A80218
:101C5800F5E7A36801225A7597E0A068D0F87C32AE
:101C68009B0740F19280012105F011FBA068857D5A
:101C7800002D40F08A80B0F85430FF2B00F08580AA
:101C8800B0F8562000F15C0100F5AE7007F0BAFA22
:101C9800A3681BA90BA8B3F85620134483F85C511A
:101CA8001423A26802F5AE7205F0F5FC0B9914290D
:101CB8006BD830AB03EB810343F8545CA368B3F8EB
:101CC8005620002A00F05782134493F85B30202BEB
:101CD80000F0558221B1093B042B4BD9012948D189
:101CE80000250A9530AA0A9B002602EB8303B34617
:101CF800374653F854ACB046504605F0ABFA814627
:101D080016AA4146284600F073FB0346002840D136
:101D1800012E67D130AA0A9B02EB830353F8540CB7
:101D280005F098FAA268064639461832284600F0A7
:101D38005FFB0568284605F08DFA864205D0821BB0
:101D4800A919204692B206F062F8A068B0F8563099
:101D5800034493F85C30202B33D0093B042B30D953
:101D6800D0F87C32DF0731D42021204600F02CFD4A
:101D78000BE0013900200CAB1BAA00930AAB0190C1
:101D880005F08BFD05460028ACD1606905F0DCFB49
:101D9800A6E61B684A4651461846039307F07EFAA2
:101DA80060B9039B1846FEF717FA584538BF5846DE
:101DB800002E08BF474601361FFA80FB08F10108CC
:101DC8009EE70121204605F0BFFEDEE7002105F071
:101DD80069FA2021204600F0F7FC0121A06805F0EF
:101DE80061FAD2E70490D0D930AB0A9AB94603EB2E
:101DF800820252F8543C1846039305F02BFA049BD0
:101E0800A2680690A2F840300496A268494628467F
:101E180009F10109183200F0EBFA039BD0F800A091
:101E2800D4F80880002B38D0BAF1000F38D0069AC1
:101E38001946504607F032FA0028E6D1BD4805F0A9
:101E480009FAB8F83A2000EB0B01121A504689B289
:101E580092FBF1F292B20591079205F0FBF9059910
:101E6800079A091A8BB2B8F84010481C0593A8F8CD
:101E78004000B1FBF2F002FB101189B200295ED1DB
:101E8800AC4B0621AC4A2046CDF800A005F078FFFF
:101E98000599204600F036FB05E0BAF1000FCDD1D8
:101EA8000023A8F84030049B013B0493ADD160693E
:101EB80007F10109FFF72EFC204600F0BDFC30AA0F
:101EC8000A9B02EB830353F8540C05F0C3F9394617
:101ED80011AA8046284600F08BFA0746A068FF2220
:101EE800396800F5AE7007F0EBF93B684FF6FF77FD
:101EF8000393BA4616AA4946284609F1010B00F091
:101F080077FA18B3A1680022036801F25B1111F88F
:101F180001EF985C704503D110B101325245F6D1FA
:101F2800B8F1000F01D0424507DBBA4206F1FF368F
:101F3800A8BF3A46012E97B208D0D946DAE75346E9
:101F48007E4A0621204605F01BFFA1E7002F3FF43B
:101F58001CAFA7EB08020399204692B2414405F052
:101F680056FF12E7A068D0F87C329E077FF50DAFC8
:101F7800012105F08CF9204605F06AFF05E7A06805
:101F8800D0F87C329D077FF500AF012105F07FF97D
:101F9800A368D3F87C321807EDD4204605F039FF42
:101FA800F3E6204605F047FEEFE6204605F03AFE48
:101FB800204605F07EFD10B96069FFF7ABFB0121F3
:101FC800A06805F064F9A3689A7D012A02D103226A
:101FD8009A75DAE62046FFF757FDD6E6204605F063
:101FE80033FED2E6204605F03AFECEE6D2F87C3241
:101FF8009F0603D55249606905F01FF9A368D3F815
:102008007C329E0603D54F49606905F016F92046D3
:1020180000F012FCB9E600212046FFF7DDFCB4E62B
:102028000121F9E7204605F0F6FD204605F0DCF829
:102038000121A06805F02BF9A368D3F87C329D062E
:102048007FF5A3AE4049606905F0F7F89DE62046A4
:1020580000F0E8FA0121A06805F019F995E65B2B74
:1020680002D10223537590E6D2F87C22900706D558
:10207800622B07D14FF0FF31204605F08DFDA36894
:102088000022E8E5662BFAD10121F5E70021517518
:10209800A268D2F87C1289077FF522AD313B1B2B51
:1020A8003FF673AE01A151F823F000BF31210008BB
:1020B800552100086921000825210008931D000802
:1020C800931D0008931D0008931D0008931D000828
:1020D800931D0008931D0008931D0008931D000818
:1020E800931D0008931D0008931D0008292000086F
:1020F8001F200008E51F0008AB1F0008931D0008FB
:1021080029210008931D000835210008931D0008A7
:10211800931D0008931D00085921000803235375D7
:10212800204605F07FFD30E603235375204605F071
:1021380072FD2AE635B000087FAE000830A9000815
:102148002D9A0008329A0008289A0008032353752C
:10215800A068D0F87C1201F0010181F001013EE68F
:1021680003235375A368D3F87C329B077FF50DAE24
:1021780013E7002376E700297FF4B0ADB0E5002926
:102188007FF4F8ADACE500BFF7B5044680681546A6
:1021980000F52070002932D04FF4804105F02FF867
:1021A800A36800211D65606803689B68984758BB51
:1021B800204605F0CEF838BB4FF0FF364FF0FF371A
:1021C800A06800F5217000220721CDE9006707F01B
:1021D80016F8A06805F048F80C4A0421204605F0D6
:1021E80070F820460A4A012105F06BF86068036818
:1021F8005B6903B19847A06805F032F8E0E76FF42F
:10220800804105F00BF8CBE703B0F0BDCD16000810
:102218002973000810B504460A4905F01FF90A4950
:10222800204605F01BF92046084905F017F9204615
:10223800074905F013F92046064A002100F03EFB45
:10224800002010BD85AE0008C3AE000822AF00080C
:1022580076AF000811B00008F8B5002516460A4602
:10226800204904461F4605F0F9F8AF420ED9725DC1
:1022780020461D4905F0F2F80135102D0BD06A07EC
:10228800F3D11A49204605F0E9F8EEE71849204647
:1022980005F0E4F8F0E700251649204605F0DEF8D9
:1022A800BD4213D2725D20461349A2F120035F2B71
:1022B80028BF2E2205F0D2F80135102D0BD06B0760
:1022C800EED10A49204605F0C9F8E9E70749204652
:1022D80005F0C4F8F0E720460849BDE8F84005F0E5
:1022E800BDB800BF27B000082EB0000836B00008FF
:1022F80034B0000838B000085AB000083AB00008F6
:102308002DE9F0410446806888B08846D0F8A46278
:1023180015461F46002E50D14FF42B72314606F059
:1023280098FFA06800F5217006F05CFFA06800F532
:102338002570012266F38205114606F000FDA369A7
:102348004FF400711E60A06800F5207004F057FF7C
:10235800A368502220465A871822A3681A87216842
:1023680005F0A6F8A368164A4146C3F87C5260688F
:1023780003681D682346A8470546D0B9A36801220B
:102388001A75D4E909010022002304950094CDE9C7
:1023980006230E234FF4006203930E9BCDE90173CD
:1023A800084B03F069F8A368C3F8A402216A02F095
:1023B800ABFF284608B0BDE8F0816FF07705F8E775
:1023C800157300089121000810B5044613460A4603
:1023D8000146064801F016F923691B7923B1204606
:1023E800BDE8104005F0B0B810BD00BF6975000821
:1023F80038B50B46154648B91449154A521AB3EB75
:10240800920F05D251F82350284638BD84680CB97C
:102418000025F9E70F4A94420AD30F4A944207D29B
:1024280018462268294690472B68002BECD1EFE725
:102438000A4A944202D30A4A944205D324681422D1
:102448005343E518E358F0E70133F8E7909800089C
:10245800C0980008C4990008FC990008C0980008B2
:10246800C4990008F7B50378044615462D2B05D105
:102478006FF0150300202B6003B0F0BD00230C4F54
:1024880001F072F80646C3510A46204601A903F036
:102498000DFFF359222B02D16FF02103EAE7002B3D
:1024A800E6D1019BA342E3D01B78002BE4D0DFE701
:1024B8000C0000008368D3F87C329B0603D50249E0
:1024C800406905F0D7BA7047389A0008014905F005
:1024D800D1BA00BF7FA600080A1E0DDC0ED0422329
:1024E8008168D1F87C12890608D5002A0449406918
:1024F800B8BF524205F0BEBA4123F1E7704700BFAA
:1025080056B000080A1E0DDC0ED044238168D1F8AD
:102518007C12890608D5002A04494069B8BF52428E
:1025280005F0A8BA4323F1E7704700BF56B000088A
:102538002DE9F0478468054604F15C00FDF74CFE80
:10254800002287B294F83C809146668FA6EB080675
:10255800BE4209DB002F21DD5C3268691049224444
:10256800BDE8F04705F086BA16445C320D4934449C
:1025780094F85CA084F85C90AB6868691A4405F02C
:1025880079FAAB683246334483F85CA0AC68638F51
:10259800A3EB08034FF00008FF1AD6E7BDE8F08761
:1025A80030A9000820BB000808290A4617D8836804
:1025B80093F83E10914212D083F83E20082A83688F
:1025C800D3F87C3205D0990609D50549406905F04C
:1025D80051BA9B0603D50349406905F04BBA7047C9
:1025E8005DB000083D9A000838B50D4609780446E4
:1025F800FFF7DAFF6A78072A11D8A36893F83F1023
:1026080091420CD083F83F20A368D3F87C329B0614
:1026180005D560690249BDE8384005F02BBA38BDD8
:1026280066B00008F8B583680446B3F85420002A59
:1026380055D0B3F85610002951D05B3103F15C0531
:102648000B441846A84206D3014611F80169202E0A
:102658003CD0A8423CD286B2471C9DB2AB1B9BB271
:10266800591CD21A0144384606F0DAFDA268711BDB
:102678002046B2F8543013FA81F309B2A2F8543064
:10268800A368B3F854201344002283F85C2005F0B3
:102698005BFAA368D3F87C329A0603D510496069BF
:1026A80005F0E8F93B460F4A0821204605F068FB8B
:1026B8002046FFF7FFFEA368D3F87C329B060ED5B1
:1026C80060690949BDE8F84005F0D4B90846B9E79A
:1026D800014611F80169202EBDD00846B9E7F8BDBA
:1026E800429A000830A90008469A00082DE9F047E8
:1026F80004460F4690460AB1FFF7DCFEA668D6F8F6
:102708007C32B6F856505B0723D505F15C0030449F
:10271800FDF762FD0546B5B9A368B3F85420A3F8E0
:102728005620A06805F0B3F930B1B8F1000F00D019
:1027380017B16069FFF7CAFE7942204609B2BDE8C1
:10274800F04705F001BA1D49013D606905F092F9AD
:10275800E1E73046AA46FDF73FFDB6F85490738F7F
:1027680019FA80F915FA80F0B0FBF3F2B9FBF3F32C
:102778009A421AD04845A368CEDA5A8F451CB0FB56
:10278800F2F302FB130313B96069FFF79FFEA36816
:102798000AF1010620460A4A53440821B24693F832
:1027A8005C3005F0EDFA2846E4E75C35054A082177
:1027B8002046731905F0E4FAAEE700BFCEBF000863
:1027C8005AB0000830A9000813B5836804468DF88C
:1027D8000710D3F87C22D00725D5B3F85610B3F8E4
:1027E80054208A421FD0481C9DF80720A3F85600A1
:1027F8000B4483F85C20A368D3F87C12890710D5B2
:10280800D3F87C32606913F0040F0A4918BF2A22F2
:1028180005F030F9204605F04CF910B16069FFF772
:1028280055FE02B010BD01220DF10701204605F04A
:10283800B4FAF6E75AB0000810B5836804469A7DE2
:102848001AB9094A022105F09BFAA368D3F87C3229
:102858009B0707D52046FFF76BFE2046BDE81040D2
:1028680005F04DB910BD00BF30A90008014905F0B9
:1028780029BB00BF7FA60008F8B50F46516805467A
:1028880016461C4611B11A4605F029FBB3688BB1F0
:1028980021462846FFF736FE074A08213B462846C8
:1028A80005F06EFAB168E21D21B12846BDE8F8408E
:1028B80005F015BBF8BD00BF6FB000082DE9F04367
:1028C8000E46002189B0044617460D4603AA304635
:1028D80001F10108FFF78CFD88B96DB127B13A46BF
:1028E8000821204605F04CFA002103AA304601F1E0
:1028F8000108FFF77DFD60B909B0BDE8F083006805
:1029080010B1FDF769FC80B28542414638BF0546E3
:10291800DCE7D0F80090B9F1000F0FD099F800303B
:1029280063B147680821124B2046124ACDE9005985
:1029380005F026FA27B96069FFF798FF4146D4E702
:102948000B4B20460C4A082105F01AFA384605F0C8
:10295800A7FAAB1D9BB228B13A4649462046FFF775
:102968008BFFEBE71A463946204605F0B8FAE5E74B
:10297800D4BF00087AB0000881B00008F7B50F6826
:1029880005460E46D7B13846FDF726FC84B2114BF2
:1029980008212846104A00933B4605F0F1F9716872
:1029A800084605F07DFAE31C9BB248B10A46284662
:1029B800316803B0BDE8F040FFF75EBF3C46E6E78C
:1029C80031B11A46284603B0BDE8F04005F087BA91
:1029D80003B0F0BDD0BF000880AE000810B50749AD
:1029E8000446FDF7E7FB38B105492046FDF7E2FB51
:1029F800B0FA80F0400910BD0120FCE786B000085D
:102A080089B0000810B583680446D3F87C329B0669
:102A180003D50649406905F0CEFAA3685022002084
:102A28005A871822A3681A8710BD00BF4A9A00085F
:102A380008B5836902491A6804F010FD002008BD32
:102A480090B00008F7B50D4905460D4C04F006FD99
:102A58000C4E0022B44202F1010702D3002003B059
:102A6800F0BD236A92B20849284600932C3454F8E2
:102A7800243C04F0F3FC3A46ECE700BFA0B00008A1
:102A88006498000890980008B8B00008024908B592
:102A980004F00EFD002008BD80A6000837B50446E6
:102AA8000025A2680DF106030121E06802F5AE7267
:102AB80005F01FFBBDF80600A36840B12A4603F5E0
:102AC800AE7305492046013504F0C8FCE9E783F8F0
:102AD8005C0103B030BD00BFC9B0000810B50446A2
:102AE80004F01FFD03490246204604F0B7FC00200D
:102AF80010BD00BFF4AB0008022907B50BD153681D
:102B08000C4900930C4B126804F0C4FC6FF01500DC
:102B180003B05DF804FB8368084AD3F87C3208499F
:102B280013F0020F074B18BF1A4604F097FC002059
:102B3800EEE700BFECB00008D7B00008D3B000083B
:102B4800F5B0000878A5000810B583680446D3F8E6
:102B58007C329A0603D50749406905F02CFAA36828
:102B6800D3F87C329B0603D50349606905F023FA44
:102B7800002010BD519A0008569A00080129F0B5A6
:102B8800044685B00BD053686FF015055B49009378
:102B98005B4B126804F07EFC284605B0F0BD8368E4
:102BA800D3F87C329A0603D55649406905F003FAF2
:102BB8006FF0F9012046FFF78FFCFA212046002527
:102BC800FFF7A0FCA0684FF48072294600F5AE70AC
:102BD8008DF80B504FF47A7606F03BFB4A49606952
:102BE80005F0E9F9606904F0AFFC606801220DF1B5
:102BF8000B0103681F6903ABB847039B53B9013E38
:102C08004FF47A7005F0E4FFB6B2002EEDD16FF004
:102C1800850534E09DF80B20A3681B2A60D093F843
:102C28005C111B29E1D1522A5AD15A19002382F882
:102C38005C31A66896F85D215B2A38D106F25D15ED
:102C4800022015F8011F024601303B2980B231D11C
:102C5800FF2ADCD002F5AE7216FA82F1002211F8D2
:102C6800015F002D30D1FA2A86F85C51A16828BF8F
:102C7800FA22FA2B4A8728BFFA23A2681387A36887
:102C8800D3F87C329B0603D52049606905F093F997
:102C9800002D81D0A36850221D4920465A8718224A
:102CA800A3686FF007051A8704F0E6FB74E786F857
:102CB8005C31ACE703EB83033039B0F5807F01EB7F
:102CC80043018BB2BDD1A2E7013002EB8202303D55
:102CD80080B205EB4205B0F5807FAAB2BFD196E776
:102CE8002B440135ADB283F85C21092D7FF67DAF09
:102CF800A368002283F85C2189E700BFECB00008D4
:102D0800D7B000085C9A0008D7BF0008609A00088E
:102D180006B100082DE9F04F074689B015468946E7
:102D280021B1104605F060FA00285BD1032455E074
:102D38005C463CE029460AF5AE7006F0E0FA064625
:102D4800002854D0FDF748FA314682B2601C08F1D9
:102D580001080132304406F063FA224659463046EB
:102D680006F050FA4FF020033355BAF858300133C3
:102D78001C44AAF85840002401994B1C03AA484651
:102D88000193FFF735FB0646E8B100223168284673
:102D980005F0A8FA0028EFD1D6F800B0D7F808A0B7
:102DA800BBF1000FC4D05846FDF716FA84B2BAF842
:102DB80058302344FF2BBDDD01242B460D4A032147
:102DC800384604F0DDFFB8F1000F07D0B8682A468E
:102DD80000F1580100F5AE7004F00CFD204609B072
:102DE800BDE8F08F4FF0000802244146C5E70224F1
:102DF800E9E700BF03B6000880B505460E4617464A
:102E0800984602F0D1FDDFF82090034600F0ACFBB5
:102E18000446424649F8003039463046A84754F837
:102E2800090000F041FB00BF080000000348002132
:102E3800034A08B5121A05F01CFA08BDC0000024A0
:102E48004C0900240748084A0849121A08B505F031
:102E580012FA0748074A0849121ABDE8084005F05F
:102E68000ABA00BF00000024C0000024ECBF00081C
:102E78000000002400000024ECBF000838B5054617
:102E88000C4699B11048D1E90123096803F0CEFF37
:102E9800E1680E48D4E9042303F0C8FFE1690C484F
:102EA80003F0C4FFA1690B4803F0C0FF012D05D151
:102EB800EFF305810848103903F0B8FF214628468A
:102EC800BDE8384002F074B855B6000885B6000869
:102ED800B5B60008C5B60008F4B6000830BFFFF75D
:102EE800FDBF00BF2DE9F0410B4E0546DFF82C80F1
:102EF800324606EB0807CC1B0949204606F082F942
:102F0800A019083C4246002106F0A3F907F1080081
:102F1800C5F8AC40BDE8F0810000000008000000E2
:102F2800FC99000810B51D4C1D4803F07FFFA36AEB
:102F3800990130D51B4803F079FF1E20A36ADA01F6
:102F480003D5194803F072FF1F20144CA36A1B0312
:102F580003D5164803F06AFF2120A36A590303D555
:102F6800134803F063FF22200C4CA36A9A0303D58D
:102F7800104803F05BFF2320A36ADB0303D50E4848
:102F880003F054FF2420054A936A6FEA03436FEA6B
:102F98001343936210BD1D20D0E700BF00ED00E091
:102FA80008B7000821B7000835B7000850B700086F
:102FB8006FB7000895B70008B0B7000870B5244C83
:102FC800064624480D4603F031FFA36AD90435D5D7
:102FD800214803F02BFF1720A36A1A0503D51F48C1
:102FE80003F024FF18201A4CA36A9B050FD51C4830
:102FF80003F01CFFA16BA36A180407D5194803F056
:1030080015FF1EB1A36A23F40043A3621920104CD4
:10301800A36A590503D5144803F008FF1A20A36AC8
:10302800DA050DD5114803F001FF1B20084A936A01
:1030380043F47F43936200232B7070BD1620CBE7C7
:10304800A36A9B04F2D50A4803F0F0FE1C20EDE7C2
:1030580000ED00E0DCB70008F3B7000805B8000889
:1030680019B8000833B8000849B8000865B800085E
:103078007EB8000870B5264C064626480D4603F073
:10308800D5FEA36AD80640D5234803F0CFFE112009
:10309800A36A190703D5214803F0C8FE12201C4C67
:1030A800A36A9A070FD51E4803F0C0FE616BA36A96
:1030B8001B0607D51B4803F0B9FE1EB1A36A23F00F
:1030C8008003A3621320124CA36ADE0703D51648B7
:1030D80003F0ACFE1420A36A9C0603D5134803F042
:1030E800A5FE15200A4B9A6AD10600D49A6A9A6AF4
:1030F800920603D55A6A22F400525A629A6A42F03A
:10310800FF029A6200232B7070BD1020C0E700BF39
:1031180000ED00E0AEB80008C5B8000805B8000822
:10312800F9B8000812B9000829B900087EB80008E3
:103138005E4B2DE9F0415F688AB004460025C7F36D
:10314800080685F31188BFF36F8F02F07F43B3F150
:103158007F4F06D102F00C03082B13D1544803F01B
:1031680065FE00252C464FF00008F31E8DF80780F9
:10317800092B00F28C80DFE803F00A80847C8A8ABD
:103188008A8A8A8810074CBF0C460125EBE7474E10
:10319800484803F04BFE8DF80780F36A9A0704D578
:1031A800454803F043FE00232AE0F36A002B01DAC6
:1031B8004248F6E7F36A5B00F5D5414803F036FE6E
:1031C8007369A26943F480737361BFF34F8FBFF3D0
:1031D8006F8F32F8023C726922F480727261BFF319
:1031E8004F8FBFF36F8F03F47F42B2F55F4F28D143
:1031F800DBB2022B25D12168324803F017FE236881
:103208009DF80720D2B902AE04F1200720680834DF
:1032180054F8041C3246BC4203C21646F6D1099A39
:10322800002D40D0C2F3080121B96FEA52226FEA9B
:103238004222099202A91846FFF720FE0AB0BDE80B
:10324800F0811A4B9A6AD2B22AB10DF10701012016
:10325800FFF710FF0FE09A6A12F47F4F05D00DF1C7
:1032680007010120FFF7AAFE05E09B6AB3F5803F3E
:1032780099D3FFF757FE0346C2E70DF10701002077
:10328800E6E70DF107010020ECE70F4889E717F49E
:10329800F87F0E4B0E49A6F1100208BF19460D48DB
:1032A80003F0C4FD7FE76FF30802C2E700ED00E01A
:1032B80077B90008A3B90008BBB90008DDB9000850
:1032C800ECB900080CBA000829BA000849B9000886
:1032D8005EB900084EBA0008044B5A6942F0100261
:1032E8005A615A6922F008025A61704700ED00E0FD
:1032F800EFF30880EFF3098101B57246FFF718FF75
:1033080001BD00BF0F4880F3088803F080FE10203D
:1033180080F311880C484FF0AA014FF4006204F0C2
:10332800A8FF09484FF40061401880F30988EFF3BB
:1033380014800221084380F31488BFF36F8F00F0D4
:1033480049F8000090200024501300241EF0040FB8
:103358000CBFEFF30880EFF30980816911F8021CB4
:103368000229FFD001B5724604F087FF01BD00BFF6
:1033780000B2002807DB0123410900F01F00024AC0
:10338800834042F82130704700E100E000B201318B
:1033980000284FEA0111C9B206DB00F1604000F5D0
:1033A800614080F80013704700F00F00014B19547A
:1033B800704700BF14ED00E0044B054A23F07F037B
:1033C8009360BFF34F8FBFF36F8F70470000000803
:1033D80000ED00E008B5FFF7EFFF0C4AD2F888309F
:1033E80023F47003C2F88830EFF3148323F0040346
:1033F80083F31488BFF36F8FFFF718FDFFF722FDE3
:1034080000F094F804F05FFF01F0A6FE00ED00E084
:1034180042F8203C203A009B08495360019B21F068
:1034280001019360029B9161D3604FF08073D36177
:1034380000230265C0F8B030704700BF012E0008B5
:103448000C4B15460E4600B59860D0F8AC200A4BD8
:103458001A602C4686F309880020044B98472046BA
:10346800002100220023024C20470000A782000808
:10347800012E0008F00800241C080024014B10222B
:103488001A61704700ED00E0054B5A699B689A4243
:1034980004D0044A536843F080535360704700BF18
:1034A800F008002400ED00E0084B9B6883420BD134
:1034B800EFF3058343B1064B5A6842F080525A60D5
:1034C8005A6A22F400425A6202F074BAF0080024E0
:1034D80000ED00E012498A684FF030001044EFF325
:1034E800098C80E8F01F102080F31288BFF36F8FDB
:1034F8000C4F4FF000664A698A603E60D2F8AC0013
:10350800094C2060D2F8B0000023C2F8B03080F334
:10351800118802F1300090E8F01F8CF30988704799
:10352800F008002404ED00E01C08002400230448EF
:103538001021C2180133292B82F80013F9D17047E2
:1035480000E100E008B5EFF30583064A103B02EB03
:10355800C30152F8330049688847BDE80840FFF7BF
:1035680093BF00BF809600080148006870470000BC
:103578001C080024154A70B5536913F4803323D10D
:10358800C2F88430BFF34F8FD2F8803043F6E0742E
:10359800C3F3C900C3F34E335B0103EA04060146D3
:1035A80046EA81750139C2F86052F9D2203B13F11D
:1035B800200FF2D1BFF34F8F536943F48033536127
:1035C800BFF34F8FBFF36F8F70BD00BF00ED00E0FA
:1035D8000B4B5A6912F4003211D1BFF34F8FBFF36E
:1035E8006F8FC3F85022BFF34F8FBFF36F8F5A69A5
:1035F80042F400325A61BFF34F8FBFF36F8F7047A9
:1036080000ED00E0F0B587B007460E4614460021ED
:10361800102268461D4605F01CFE02232A46214654
:103628008DF802306846044BCDE90476019302F028
:103638002FFF07B0F0BD00BFD18200080649074838
:1036480021F00701C1F1105208B502F5002203F07C
:1036580069FB002008BD00BF972000242008002433
:103668002DE9F04F91B01D4606460C461A9B93462D
:10367800002B00F04B82B146294619F8010B04F0E3
:1036880029FE0246207804F025FE3F2A07465FFA05
:1036980080F821D006DC92B12A2A32D0D2B2424533
:1036A8002DD01EE05B2A7DD05C2AF7D1EB07F6D43B
:1036B800707806F1020904F00DFEC2B2EFE7E806E1
:1036C80002D5B8F12F0F03D0B8F1000218BF0122BC
:1036D800104611B0BDE8F08F18B12F2803D1A90703
:1036E8000DD50122F4E72E2809D16A0707D55C45D4
:1036F800F7D0AB0703D514F8013C2F2BF1D00134D8
:103708002CE0707804F0E6FDC1B22A2918D02E2FDB
:1037180009D16F0707D55C45E3D0AE0703D514F888
:10372800013C2F2BDDD079B915F00202D0D0ED067F
:1037380000F1EE812F21204605F0A3FD021EC5E70A
:10374800294619F8010FDDE72F2909D1A80707D560
:10375800204605F096FD04460028C2D04E468AE76A
:103768001A9B05F0020A5F1E2646B8F1000FB8D072
:103778005A462B46214648460097FFF771FF0246F6
:103788000028A5D02946307804F0A4FD2F2804F19C
:10379800010404D1BAF1000FA3D12646E8E75FFA85
:1037A80080F8E1E700289CD02F2848D1AA0798D4B0
:1037B8007378212B01D05E2B4FD1B31C05930123C5
:1037C80029463846069304F085FDC3B20646002212
:1037D8000493A0F14103192B099394BF00230123FB
:1037E8000F93A0F120035E2B94BF002301230E93B7
:1037F800A0F16103192B089394BF002301230D93B3
:10380800A0F121035D2B0B9394BF002301230C939C
:10381800A0F13003092B079394BF002301230A93D7
:10382800059B0393039B1B785D2B1ED1059B039976
:103838008B4222D2069B01F1010993425EE72E28B2
:10384800B6D16B07B4D55C453FF44BAFA807AFD5ED
:1038580014F8013C2F2BABD143E70023CDF814908B
:10386800AEE70122CDF80CA0DCE7002B00F04C817C
:103878002F2B38D1A9073FF534AFDDF80CA0294626
:103888001AF8010B04F026FD0399C3B249782D29D3
:1038980040F0348103998978002900F02F815D294F
:1038A80000F02C8103985C2900F1020A04D1E90791
:1038B8005CBF014601F1030A29461AF8010B03937C
:1038C80004F008FD002800F01F8115F0080F039B85
:1038D80040F00E810499C0B29942C3D3814298BF87
:1038E80042F00102BEE703995C2B497805D1EB074A
:1038F800C3D4039B01330393BFE75B2BBDD13A29A4
:10390800BBD1039B0020991C03468A4611F801CBC2
:10391800BCF1000F46D17F497F4FBB4208BF8842A8
:1039280000F0DB80814277EB03015AD3A7F510271B
:103938006FF4817C79496744BB4208BF884200F034
:10394800BA80814277EB030137D3A7F50037744972
:10395800A7F50177BB4208BF884200F09A8001F1C1
:10396800C16107F57F4701F50031F137BB4208BF58
:10397800884200F0988001F1E061DFF8A8C101F504
:103988000031634508BF88427FF477AF26F02003F3
:10399800413B192B7FF665AF079B092B98BF42F077
:1039A80001025FE711F802ECBEF15D0FB3D01B0214
:1039B80043EA10634CEA0020A7E75B495B4FBB4230
:1039C80008BF884200F08E8007F1E047584907F5A4
:1039D8007437F6378B4208BFB8427FF44EAF0C9B62
:1039E8007CE05449544FBB4208BF88426BD08142A7
:1039F80077EB030129D3A7F53F375049A7F5FC77A3
:103A0800BB4208BF88426FD007F1C6474C4907F54B
:103A1800713707F57D778B4208BFB8427FF42DAF29
:103A28000B9B0E2B7FF61DAFA6F13A03062B7FF6F4
:103A380018AFA6F15B03052B7FF613AFA6F17B0346
:103A4800032B98BF42F001020CE732493D4FBB42BD
:103A580008BF88424AD007F1F04701F180616FF44E
:103A6800E16CA7F5881701F500316744BB4208BF30
:103A780088427FF402AF079B092B7FF6F2AE099BC1
:103A8800052B7FF6EEAE089B052B98BF42F001028E
:103A9800E8E6099B192B7FF6E4AE089B192B98BF23
:103AA80042F00102DEE6202E3FF4DBAE092E08BF0D
:103AB80042F00102D6E61F2E7FF7D3AE7F2E08BF55
:103AC80042F00102CEE6202E3FF4CBAEA6F1090368
:103AD800042B98BF42F00102C4E60D9B83F001035A
:103AE8001A43BFE60A9BF9E70E9BF7E70F9BF5E73A
:103AF800A0F14101192998BF2030EBE604999942B9
:103B080008BF42F00102ADE65B22C8E50322DFE50B
:103B18000A46DDE55D3A7265776F6C005D3A6C7256
:103B28005D3A61686E6C61005D3A7469676964004A
:103B3800617267005D3A6563617073005D3A746E27
:103B48006E757000707075000268064B1A604268E6
:103B5800054B1A608268054B1A600269044B1A60AB
:103B6800704700BF34080024300800242C080024C3
:103B78003808002407B5084A92E80300CDE9000197
:103B880006488268126822B16946904703B05DF81A
:103B980004FB6FF05700F9E7209A0008A09400088A
:103BA800044B03EB40000023013320F8022B8B4227
:103BB800FADB7047680000242DE9F041054600262D
:103BC8000F4F4FF00108F4B26B78A34201D8BDE85B
:103BD800F0812B781C44204604F08EFB68B1204607
:103BE80004F0A6FB57F834303BB107EBC40204F0ED
:103BF8001F04516808FA04F098470136E3E700BF4C
:103C08003C080024034680B1B0FA80F2C2F11F02DA
:103C1800D2B2074931F912004FF0B042D2F8801001
:103C28000B43C2F88030FFF7A3BBFF22F1E700BFC8
:103C38006800002430B5B0B1B0FA80F3C3F11F03B7
:103C4800DBB20B4850F833408C4204D100EBC3057B
:103C58006D68954205D044B940F8331000EBC300B5
:103C68004260002030BDFF23EBE76FF00F00F9E75B
:103C78003C08002460B1B0FA80F3C3F11F03DBB243
:103C8800044A002142F8331002EBC3025160704726
:103C9800FF23F5E73C08002400F003020F23043259
:103CA80092009340094A43EA900000F0030302336C
:103CB80052F82320030C02EA104293FAA3F008B149
:103CC800B0FA80F022FA00F0704700BF00040058F4
:103CD8000B88C3F30B03F42B07D8D72B08D8132B67
:103CE80019D8112B0ED8012B18D06FF0850070470A
:103CF80003F628734FF01130C3F30B0320FA03F3D4
:103D0800DB07F2D50A4B186810600B68B3F5805FC3
:103D180006D200207047D42BF4D0E6E70020F3E762
:103D2800C3F313330133B0FBF3F01060F1E700BFC6
:103D3800580000243D4B37B5D3F8E02042F000721C
:103D4800C3F8E020D3F8E02002F000720192019A53
:103D580000220092364A916941F44041916191698B
:103D680001F4404100913349C86A40F00100C8623B
:103D7800C96A01F001010091009991698C04FCD590
:103D88001B692D4813F0380F284C18BF0025A36A6B
:103D980008BF054643F003038542A36201D001F042
:103DA80031F8A36923F47063A361A36923F00F03B7
:103DB800A361E36923F07003E361E36923F4E0633B
:103DC800E361A36923F07003A361236A23F07003FE
:103DD80023622368580707D42368144A43F0010371
:103DE800236013685907FCD5104B1A6922F00702A3
:103DF8001A611A6912F0380FFBD10F4B9D4202D19C
:103E0800284600F0FFFF0A4B9A6942F440429A6143
:103E18009A699204FCD5054A0020136923F40043EB
:103E28001361064B044A1A6003B030BD00440258BF
:103E380000480258000400580090D003580000249D
:103E48002DE9F843D0F80490904607460D46D9F876
:103E580008001E4604F0CFFAB8F5001F044616D134
:103E6800D9F808402846FFF717FF84420CD12946A5
:103E780004F0C1FA044604F0C3FA2046FFF7FAFE3C
:103E88000021204604F0C5FA0020BDE8F883B8F503
:103E9800800F20D0B6F1806F19D0B6F1C06F18D05E
:103EA800B6F1007F1AD102263A460F492046FFF79D
:103EB800C1FEB0B9D9F80810284604F0D3FA204654
:103EC800314604F0A6FA2046FFF79CFEDCE70126FF
:103ED800EAE70326E8E76FF08500D6E76FF01500FC
:103EE800D3E76FF00F00D0E7198700082DE9F043FA
:103EF800804685B08946134C0027134E002515E0EF
:103F0800236849468DF8092001A80193A368EB406E
:103F180003F001038DF80830237C93428ABFE368DD
:103F2800334653F8253001350393C04794F90430DC
:103F3800EAB29D42E4DB013718340B2FDED105B01D
:103F4800BDE8F08374A1000880A6000838B503F026
:103F580044FD48B100231824064A04FB03F18D18D8
:103F68005158814201D1284638BD01330B2BF4D179
:103F78000020F9E774A10008F0B505468BB0506839
:103F8800FFF7E4FF0446B0B90146182204A805F07B
:103F980060F9214B214928460193214B214A00937E
:103FA800214B039503F05AFA03A92048FFF79EFF17
:103FB80000200BB0F0BD90F9042028461C490026CB
:103FC80003F04CFA1B4FA26828461B4903F046FA37
:103FD8001A49284603F042FA94F904309E42E7DA77
:103FE800F2B2217CA36828469142154923FA06F3C8
:103FF8008CBFE2683A4603F0010388BF52F82620D6
:10400800002B3346009206F101060CBF20222A221B
:1040180003F024FAE0E700BFBDBA0008A4BA00081C
:10402800C1BA00089FBA000896BA00080D460008F1
:10403800C8BA000880A60008D5BA0008F2BA000875
:104048000DBB00082DE9F7434FF000080546486806
:104058000F461646CDF80480FFF778FF044648B9A6
:1040680028467A682D4903F015FA6FF0150003B059
:10407800BDE8F083036801AA41463360B868FEF7DB
:10408800F1F9019A0346002A41D0BA68414694F9E9
:1040980004C0FF2361455FFA81FE02DA207C704587
:1040A80008D8FF2B37D128461D4903F0F3F96FF0E4
:1040B8000100DCE7E06802F1FF3850F82170013FA9
:1040C80018F8019F17F8010FB9F15F0F04D12028E4
:1040D800F6D05F28F4D018E0484516D10028EFD173
:1040E800A068C840C00706D528460E4903F0D2F993
:1040F8006FF00C00BBE7FF2B06D028460A4903F0F7
:10410800C9F96FF00D00B2E773460131C2E7A26842
:10411800C240D207E8D400203371A8E724BB0008C6
:1041280064BB000841BB00084FBB000837B5114607
:104138006A4605460124FFF785FF28B1284603F0A3
:10414800DEF9204603B030BD9DF80430009804FA2B
:1041580003F183685B69984704460028F1D002465A
:104168000249284603F096F9EBE700BF7FBB000839
:10417800F0B585B01146054602AAFFF763FF30B1D6
:104188000124284603F0BBF9204605B0F0BD02988B
:104198009DF80C600769836801A95B689847041E4D
:1041A80007D010DB22460B492846002403F056F9B5
:1041B800EAE73B68019C5C400123B3401C40003C9B
:1041C80018BF0124EEE722460349284603F062F9A6
:1041D800DAE700BF75AB00087FBB000830B51546AD
:1041E80085B00446294602AAFFF72CFF0146019034
:1041F80028B1204603F083F9012005B030BD01AA9B
:10420800E868FEF72FF9019B0246002BF1D19DF8D3
:104218000C3001210298003A01FA03F1036918BF32
:1042280001221B680B40003B18BF01239A42836898
:1042380014BFDB681B69984701900028DDD002464F
:104248000249204603F026F90198D6E77FBB00080B
:104258002DE9FF411746884602AA05463946FFF769
:10426800F1FE0446019030B1284603F048F90120D8
:1042780004B0BDE8F081FE683046FBF7ADFF334679
:10428800304498420ED184F48033C4F3404204F49D
:104298000031C3F300439A4253D05349284603F0F0
:1042A800F9F8E1E713F8012B752A05D8632A08D82D
:1042B800302A40D0312A41D04C49284603F0EAF848
:1042C800D2E7A2F164011129F6D801A656F821F027
:1042D80033430008C1420008C1420008C142000837
:1042E8008B42000821430008C1420008C14200086F
:1042F80039430008C1420008C142000827430008AA
:10430800C1420008C1420008C1420008C142000879
:10431800C14200082D43000844F48034B1E744F456
:104328000034AEE744F01004ABE744F02004A8E7FB
:1043380044F00104A5E744F4A014A2E744F4C0142F
:104348009FE704F03003302B01D12949A6E719B1C2
:10435800E30258BF44F4A01404F48813B3F5881F8B
:1043680001D124499AE704F44023B3F5402F01D141
:10437800214993E7B8F1050F0AD101AA002138694C
:10438800FEF770F8019A20F47F43134329D10443C0
:1043980002989DF80C10E602D0F808C0076907D506
:1043A80014F4402F1EBF44F3000303F440235C4081
:1043B80001263B6824F48012E40706FA01F64CBF94
:1043C8003343B3433B60DCF8003098470190002842
:1043D8003FF44EAF02460949284603F05BF80198BE
:1043E80046E707495AE700BF99BB00088ABB00089F
:1043F800B9BB0008DABB00080BBC00087FBB00088B
:1044080035BC000810B500231446D360994207D084
:104418000133202BFAD1002323600023636010BDF1
:104428000A460348034901F0A9FE014BF4E700BF1F
:10443800430900246BBC00080A4610B50C46014627
:104448000248FFF7DFFF0023A36010BDBC0800246B
:104458000A4610B50C4601460248FFF7D3FF002371
:10446800A36010BDC00800240A4610B50C460146DA
:104478000248FFF7C7FF0023A36010BDC40800244B
:104488000A4610B50C4601460248FFF7BBFF002359
:10449800A36010BDC80800240A4610B50C460146A2
:1044A8000248FFF7AFFF0023A36010BDCC0800242B
:1044B8000A4610B50C4601460248FFF7A3FF002341
:1044C800A36010BDD00800240A4610B50C4601466A
:1044D8000248FFF797FF0023A36010BDD40800240B
:1044E8000A4610B50C4601460248FFF78BFF002329
:1044F800A36010BDD80800240A4610B50C46014632
:104508000248FFF77FFF0023A36010BDDC080024EA
:104518000A4610B50C4601460248FFF773FF002310
:10452800A36010BDE00800240A4610B50C460146F9
:104538000248FFF767FF0023A36010BDE4080024CA
:104548000A2830B502D900230B6030BD18220B4B66
:1045580042439C58E2697AB112686AB115685DB144
:1045680052680A600022CA60054A4A60182202FBA3
:1045780000335B698B60E8E72268F2E774A1000802
:10458800C1BA00082DE9F8430025DFF86090184B00
:104598000821184A044602F046FF59F82560082108
:1045A800154A2046336802F03EFFF36953B90635D1
:1045B800124A0821204602F036FF422DEDD1002094
:1045C800BDE8F8831E68002EF1D03368002BEED0CA
:1045D800B04600273368BB42E9D958F8043F0821A0
:1045E800074A2046013702F01EFFF3E774A10008CE
:1045F800C1BA00086EBC000881BC00087FA600088C
:104608002FA9000873B50C461148FFF76FFC237DEE
:104618002569002B2068E969A2690CBF20232A2399
:10462800A1B1096891B10E6886B14968657DCDE987
:104638000015084902F012FF04F11002231D07CAF1
:1046480083E807000023A36102B070BD2968EDE785
:104658006B87000887BC00082DE9FF41114602AAB4
:104668000446FFF7EFFC054638B10125204602F065
:1046780046FF284604B0BDE8F081606801220DF1CC
:10468800030103681E6901ABB0470126374660681D
:1046980001220DF103010368D3F8108001ABC04774
:1046A800019B002BE5D19DF80C10029807FA01F147
:1046B80083685B699847024620B10849204602F0A2
:1046C800E9FED6E71EB10649204602F0C7FE41F2D0
:1046D80088300021002604F01EFCD8E7F4AB00085F
:1046E800A0BC000843681B6803F1080252E8002FC9
:1046F80042F0010203F1080040E800210029F3D14B
:10470800154A93421BD0A2F54C42934217D002F5AA
:104718008062934213D002F5806293420FD002F573
:10472800806293420BD002F54442934207D0A2F52F
:104738001C42934203D002F58062934203D15A6827
:1047480042F040025A6053E8002F42F4807243E876
:1047580000210029F7D170470010014043681B6809
:1047680003F1080252E8002F22F0010203F10800C9
:1047780040E800210029F3D1154A93421BD0A2F545
:104788004C42934217D002F58062934213D002F54F
:10479800806293420FD002F5806293420BD002F5FB
:1047A8004442934207D0A2F51C42934203D002F53B
:1047B8008062934203D15A6822F040025A6053E85B
:1047C800002F22F4807243E800210029F7D17047B6
:1047D80000100140F8B50C46036941681D6823794B
:1047E800012B18D0A3F1020EDEF1000646EB0E06EF
:1047F800B6026279022A96BF474F4FF4005737F83E
:104808001270A279022A09D0042A30D0003B18BFBE
:1048180001231B0306E04FF4C066EAE7B3FA83F30B
:104828005B091B07E2790968012A0CBF4FF4407C39
:104838004FF0000CA5421DD10A6822F0805222F4E4
:10484800B05232431A430A604B6823F440533B4347
:104858004B6043681A68936823F4407343EA0C0377
:10486800936029684068BDE8F84004F0A9B84FF49F
:104878008053D7E7D1F800E00EF4C06E764506D035
:10488800D1F800E02EF4C06E4EEA06060E604168CC
:104898000E68716801F440518F4204D0716821F4A8
:1048A80040513943716041680E68316801F0102148
:1048B8008B4204D0316821F010210B4333604368E8
:1048C80019688B6803F440739C4505D08B6823F402
:1048D800407343EA0C038B604368D71E1B687E4213
:1048E80099687E41C1F380318E4207D0032A9A68C5
:1048F8000CBF42F4804222F480429A6021682B68FF
:10490800994206D0406804F05BF808B923682B6028
:10491800F8BD0020FCE700BF44A300082DE9F341DF
:10492800D0F804800746D8F80400D8F81010836837
:104938001B68002B00F0A8809847051E33DB01AAEE
:104948000021D8F8240003F025FF051E2BDB019B6E
:1049580000221979186803F02FFF051E23DB7E68F3
:104968003B6934681D68236823F001032360B0683D
:1049780004F05CF9002800F08A80D6E90201836817
:10498800DB6803B1984754E8003F43F00C0344E860
:104998000032002AF7D129463846FFF71BFF0546A3
:1049A80028B16FF01505284602B0BDE8F081337EC6
:1049B8001BB1A36843F00803A360737E1BB163684F
:1049C80043F400436360B37E1BB1636843F48033F0
:1049D8006360F37E1BB1636843F400336360337F25
:1049E800002B3BD02B4B9C421ED0A3F54C439C4242
:1049F8001AD003F580639C4216D003F580639C426D
:104A080012D003F580639C420ED003F544439C42C8
:104A18000AD0A3F51C439C4206D003F580639C4250
:104A280002D01D4B9C42BCD17B681A68936843F442
:104A3800804393602368727F23F0787343EA42537C
:104A480023602368B27F23F4F81343EA0243236008
:104A5800F37F1BB1A36843F40043A36096F82030AA
:104A68001BB1236843F000532360236843F001031C
:104A78002360E3699A02FCD5E3695B02FCD5D8F8A8
:104A88002830384698478EE76FF057058BE76FF068
:104A9800120588E700100140000C00582DE9F0418C
:104AA800436802460D461C6803691E680B79012B92
:104AB80017D0981E41424141890295F805E0AF7927
:104AC800BEF1020F96BF3C484FF4005C30F81EC0A0
:104AD800022F09D0042F01D0002B63D04FF480504F
:104AE80005E04FF4C061E8E7002B58D00020A3F19F
:104AF8000308B8F1010F04D86FF085031846BDE824
:104B0800F0810BB1042FF7D0BCF5805F4CD0BCF519
:104B1800405F4BD0BCF1000F0CBF012303239E451F
:104B2800EAD103F0C2FE8742E6D1EB791BB3012B31
:104B38003ED1224B9C421ED0A3F54C439C421AD036
:104B480003F580639C4216D003F580639C4212D023
:104B580003F580639C420ED003F544439C420AD07F
:104B6800A3F51C439C4206D003F580639C4202D007
:104B7800134B9C42C0D123682946104623F00103F9
:104B88002360FFF727FE03460028B5D1226842F0CC
:104B98000102226095E8030086E80300AEE74FF0C3
:104BA8008050B1E71846AFE70023B8E70223B6E71D
:104BB800032BBED0A0E700BF44A3000800100140AB
:104BC800000C00584FF0E0230D4A996912681869E3
:104BD8009B69002908BF1146002B08BF134610F433
:104BE800803F084801D1994205D20168114401600B
:104BF8004FF0E021096900681044C01A704700BFEF
:104C0800EC080024E8080024094B1022002083F84F
:104C180023204FF4C852074B1A6041F6FF02064B97
:104C280018604FF0E0235A61072298611A617047B3
:104C380000ED00E0EC080024E8080024684620F0B5
:104C480007018D4619B5FFF7BDFF1449144B0868D5
:104C5800D3E90042001942F10002C3E90002114AF7
:104C680000230B604FF4C853D2E90041001BB0FB8E
:104C7800F3F043431B1941F10001C2E90031EFF39E
:104C88001181102383F31288BFF36F8F01F0CEF8E0
:104C9800FEF7FAFBBDE8194085467047E80800248E
:104CA80050020024480200242DE9F041374E89B112
:104CB800421C0AD14FF0E022136923F0010313616B
:104CC8004FF07F433360BDE8F0813568012806DC8A
:104CD80000240AE0431C3568F8D140F63C2040F631
:104CE8003D239842A8BF1846441EEFF311871023AE
:104CF80083F31288BFF36F8FFFF764FF4FF0E02351
:104D08002349D3F818C0D1E9002380184FF00002D6
:104D180043F10003C1E900031E4B1A601E4B1A68D9
:104D2800831A2DD44FF4C85E41F6FF0814FB0E8495
:104D38001C44131A194AB4FBFEF40EFB0433B3F5F2
:104D4800806F38BF4FF48063934228BF13464FF0FB
:104D5800E0223360013B946953610023A445ACEB26
:104D680004009361D1E900320DD20544EB1842F1F9
:104D78000002C1E9003287F31188BFF36F8FA2E701
:104D88004FF48063E3E7C318F1E700BFEC080024A1
:104D980050020024E80800244802002400DCFF0038
:104DA80038B5EFF31185102383F31288BFF36F8FA3
:104DB800084B1C68084B1B68E41AFFF703FF85F3D0
:104DC8001188BFF36F8F4FF4C8532044B0FBF3F042
:104DD80038BD00BF500200244802002438B5EFF364
:104DE8001185102383F31288BFF36F8F044B1C685F
:104DF800FFF7E8FE85F31188BFF36F8F204438BDB5
:104E080050020024002852D02B4A936903F44043EF
:104E1800B3F5404F1FD1294B294A0344934242D945
:104E2800284B294A034493423FD9284B98423ED8FD
:104E3800002327490A6822F00F021A430A600A6809
:104E480002F00F02934234D0086800F00F00C01A35
:104E580018BF01207047936903F44043B3F5004F2E
:104E68000ED11C4A1C4B02449A421AD91B4A0244CE
:104E78009A4218D91A4A02449A4216D90133D5E7F8
:104E8800184A194B02449A4209D9184A02449A42CC
:104E980007D9174A02449A4205D9164AEBE7042370
:104EA800C7E70323C5E70223C3E70123C1E70120BE
:104EB80070470020704700BF00480258FFC4A7F79A
:104EC800FFE0F5057FE2D3FB7F1D2C04801D2C0439
:104ED80000200052BF4C2AF6BF3B47037F8871F978
:104EE8003FC4B8FCFF6A45F53FA5AE023F10F4F792
:104EF8007FB5A2FABF5A51FD024B03600248C01A9F
:104F080040097047A09400088096000870B50546CF
:104F1800C8B1047874B10D4C0D4EB44201D30024CD
:104F280008E02168A94207D1204603F07FFE002847
:104F380008BF0024204670BD2846FBF73BF900282F
:104F4800F2D02034E9E70446F4E700BFA094000853
:104F5800809600082DE9F843064610B304782CB172
:104F6800114CDFF84880444503D300242046BDE8AF
:104F7800F883E56905B12D68204603F057FE28B18E
:104F880025B1D5F800900027B94501D12034EAE7CA
:104F980055F8041F3046FBF70DF90028E6D0013715
:104FA800F2E70446E2E700BFA094000880960008F4
:104FB80038B5EFF31185102383F31288BFF36F8F91
:104FC800064B9C6803F045FE85F31188BFF36F8F8D
:104FD8002046BDE83840FEF767BA00BFF008002455
:104FE80038B50A4B53F82040013053F82050A542F9
:104FF80000D838BD606830B1037EDB0701D403F008
:10500800F4FD0834F3E723689847FAE7ECA20008B0
:1050180070B52E4B01222E4C86B02E4D03201A70EF
:10502800FFF7DEFF00F0CCFFAC4218D12A4C042079
:105038002A4DFFF7D5FF26463034AE4215D3264C0D
:1050480000F0CAFBAC422CD300F0DAFB01F065FC9F
:10505800234A938923F00103938106B070BD54F865
:10506800043B002BE2D09847DEE754F80C3C05934C
:1050780054F8103C049354F8143C039354F8183C27
:10508800029354F81C3C019354F8203C009354E9D3
:105098000A2354E90C0100F085F954F8303C5E65A8
:1050A800C9E7D4E90A23B3F1FF3F08BFB2F1FF3FD4
:1050B80005D052EA0301206803D103F045FF3034DC
:1050C800C0E70849183000F021FEF8E74709002436
:1050D8006498000864980008C8970008C8970008F2
:1050E80010030024818E000870B5B823144E86B0D2
:1050F800012203FB0066134B134D044605930F234F
:105108001249CDE9033200234FF4A072CDE90133EF
:10511800142302FB001103FB00550D4B304600958C
:1051280000F040F9337C2C74013423F00403EE6062
:105138003374084B03EBC4236B6006B070BD00BF2B
:105148005802002442BF0008F0080024501B002425
:10515800318D0008501300247FB50020FFF740FF71
:10516800244B83F30888244D0024F02385F822304B
:10517800EC772C766C76AC7685F820406B6A43F435
:10518800E0236B62FEF7A8F8FEF778F94FF0FF33DB
:105198001A48AB62EB6200F09BF9194DFBF750FC23
:1051A8000120FFF71DFF0220FFF71AFF00F052FB56
:1051B800144B4FF4806214495D612846134B0094E8
:1051C80005930123CDE90144CDE90343104B00F0D9
:1051D800E9F82B7C0646284623F004032B7403F0D9
:1051E8000EFE2046FFF780FF094A31462846FEF7A3
:1051F80027F900BF501B002400ED00E0C80300247D
:1052080010030024F0080024901C002447BF000865
:105218001950000838B5064C064DAC4201D30020A1
:1052280038BDD4E901122046183403F057FDF4E7DD
:10523800A8000024C00000241FB5054CCDE90023B8
:105248000A460021029403F007FD04B010BD00BF18
:10525800276D000870B5EFF31186102383F31288C9
:10526800BFF36F8F0468A0421BD0D4B1002504F1AE
:105278001800D4E9003213605A60237CA56023F03B
:105288000203C4E90055237403F0C9FE2046C4F89C
:10529800B45003F0B4FD31460748BDE8704003F050
:1052A80011BED0E902329A4218BF0133836086F3F7
:1052B8001188BFF36F8F70BD4809002413B5EFF351
:1052C8001181102484F31288BFF36F8F846844B16E
:1052D800013C846081F31188BFF36F8F002002B016
:1052E80010BD52EA030406D181F31188BFF36F8F12
:1052F8006FF00F00F3E7CDE900230246014800F004
:1053080049FAECE74809002410B5044608B9054BEA
:105318009C681F2204F17C0003F0D2FF002084F86F
:105328009B0010BDF00800242DE9F0470C4681B31E
:105338007AB390F81090561E174F00256019B9F1EE
:10534800000F04D104F805902046BDE8F087B7F8AF
:1053580004A019EA0A0F1AD0A6EB0508FB883968D9
:10536800984528BF98464246454403F04BFF39EA22
:105378000A090CD0A6EB050860190849B8F1010F15
:1053880028BF4FF001084544424603F03BFF083769
:10539800D4E7034CD8E700BF04A300084CBF0008BB
:1053A80080A600082DE9F04F984685B000F1580313
:1053B80007320F46002622F0070A0446866001EBF2
:1053C8000A055246C673AA21DDF838B0DDF84C90BC
:1053D800C0E91633129B838104230374119BC0E92F
:1053E80006668373384603F034FF29462046FDF7E6
:1053F80079FD0730109B394620F00700C4E9277A69
:10540800C4F8A4002D1A029320460F9B2A46CDE922
:1054180000B34346FDF7FCFF0F9B66652367109BAF
:10542800C4E91A8B6367EFF31183102282F31288A1
:10543800BFF36F8F0F4F3A6A3C62A26783F31188FC
:10544800BFF36F8FB9F1000F11D01F22494604F145
:105458007C0003F035FF84F89B60BB680BB1D3F880
:10546800A8302846C4F8A83005B0BDE8F08F84F805
:105478007C90F2E7F0080024F0B5002587B00446D8
:105488000595109D04950F9D03950E9D02950D9D04
:1054980001950C9DDDE912760095FFF783FFB6F1C3
:1054A800FF3F08BFB7F1FF3F05D056EA070305D114
:1054B800204603F049FD204607B0F0BD3A46334682
:1054C80004F11800014900F021FCF4E7818E00087E
:1054D8000123037483810023C0E92733C0F8A8306F
:1054E800014B9860704700BFF00800240A4A6FF02B
:1054F8000A019368C3F8B4100849C3F8B0004B68B0
:1055080043F080534B60002383F31188BFF36F8F00
:105518009368D3F8B4007047F008002400ED00E069
:1055280070B590F91020037C002A2FDBD9062DD105
:105538001A4C63F07F0322460374E16952F8183F5E
:10554800934207D1C0E900210860E0610FE0994269
:10555800F8D01B68002BF5D093F90E6090F90E5027
:10556800AE42F4DD5968C0E9003108605860A569A9
:10557800954200D005B9E568A3681A7CD20606D121
:10558800DA897F2A03D9AA690AB9636170BDAB4277
:1055980002D0284600F0E0FA6561F7E7F008002439
:1055A80038B590F910200146037C002A04DA03F08C
:1055B8007F03037403F0EBFB0D4D2A46AB6852F8EA
:1055C800184F944200D004B9EC688B4207D01A7C7B
:1055D800D20604D1DA897F2A01D9A2692AB1A34265
:1055E80002D0204600F0B8FA23466B6138BD00BFF0
:1055F800F0080024B3F1FF3F08BFB2F1FF3F03D02A
:105608000249183000F082BB704700BF818E000845
:10561800034648B9EFF3058232B9064A51699268E0
:10562800914201D0FFF762BF83F31188BFF36F8FF8
:10563800704700BFF008002438B5184CA168E0692D
:105648000B68814214BF1A46002249680B605960F2
:10565800A368E1692AB9124AC3E900210B60E36132
:105668000AE092F90E5093F90E00854212DD516856
:10567800C3E900210B605360A569094B9D4200D026
:1056880005B9E568A3689D4202D0284600F064FA8F
:10569800656138BD8A42DED01268DBE7F008002475
:1056A80008090024F8B5394C0546A268824224D17D
:1056B800EFF305830BBBEFF31186102383F31288F6
:1056C800BFF36F8F137C03F07F0343F01003137451
:1056D80003F05DFB234653F8185F9D4200D005B9DF
:1056E800E568A3689D4202D0284600F035FA3046A6
:1056F8006561BDE8F840FFF7F9BEEFF311871023A5
:1057080083F31288BFF36F8F2B7CD90604D587F3F8
:105718001188BFF36F8FF8BDD90943F010022BD160
:105728002A74A6691A4B9E4200D006B9E668A36897
:10573800B34202D0304600F00FFAA36866619D427A
:10574800E5D1EFF30583002BE1D1AA89D20711D562
:1057580087F31188BFF36F8F83F31188BFF36F8FBF
:105768000423184602DFEFF31187102383F312880E
:10577800BFF36F8F3846BCE703F07F03284643F03A
:1057880010032B7403F003FBCBE700BFF0080024E1
:1057980008090024F8B50E4B0C4611460D4A9868C6
:1057A800DDE906671060EFF31182102282F3128898
:1057B800BFF36F8F9D68284603F0FBFA28463246F0
:1057C8003B46FFF717FF2046BDE8F840FFF78EBEBF
:1057D800F008002414090024EFF31181102383F347
:1057E8001288BFF36F8F054B9A68D37B013BD37345
:1057F80081F31188BFF36F8F704700BFF008002452
:1058080070B5EFF31186102383F31288BFF36F8FFF
:105818000F4DAB68DA7B0132DA732A4652F8184F1B
:10582800944200D004B9EC681A7CD20604D1DA8913
:105838007F2A01D9A2692AB19C4202D0204600F0F1
:105848008BF9234630466B61BDE87040FFF7E0BE38
:10585800F0080024024B03F11802C3E9062270473E
:10586800F008002410B5EFF31184102383F3128895
:10587800BFF36F8F84F31188BFF36F8F084B1B78CA
:105888000BB9002010BD03F066FA0028F9D1002CEE
:10589800F7D1044B9868044BC01A18BF0120F1E7F0
:1058A80047090024F00800245802002470B5EFF3DB
:1058B8001186102383F31288BFF36F8F1A4CA168E7
:1058C800E0690B68814214BF1A46002249680B60E0
:1058D8005960A368E1692AB9144AC3E900210B6039
:1058E800E3610AE092F90E5093F90E00854216DD45
:1058F8005168C3E900210B605360A5690B4B9D42B9
:1059080000D005B9E568A3689D4202D0284600F09A
:1059180023F930466561BDE87040FFF7E7BD8A426C
:10592800DAD01268D7E700BFF0080024080900247D
:10593800F8B550EA010306460C4603D1FFF7B6FF57
:105948000020F8BDEFF31187102383F31288BFF30B
:105958006F8F124D124BA8681860FFF721FEA868D8
:10596800234632460F49183000F0D0F9AA68044699
:105978003846137C43F004031374FFF7B7FDAB6894
:10598800D3E90A23B3F1004F08BF002AD8D103F0A6
:105998007BFB201A20EAE070D3E700BFF008002460
:1059A80014090024818E0008014B9868704700BFD5
:1059B800F00800242DE9F84304468789EFF311869F
:1059C800102383F31288BFF36F8F037C190705D563
:1059D80086F31188BFF36F8FBDE8F883D90943F0C8
:1059E800080272D10274A36813B1204603F0D7F9F4
:1059F80004F1180004F1580803F011FBA56DA8453F
:105A080011D04FF0000975B1284603F0C8F905F127
:105A1800180003F004FB2846C5F8B490FFF780FD92
:105A2800A56DA845EFD1DFF8C480D8F808309C42AE
:105A380053D1EFF30589B9F1000918BF4FF00109F7
:105A4800D8F818502A4A954200D00DB9D8F80C5009
:105A5800AB4202D0284600F07FF82046C8F8145020
:105A680002F01AFC204600F0C7F8B9F1000F02D086
:105A78002048FFF72DFDD8F808309C4230D1EFF3CD
:105A880005836BBBA289D20711D586F31188BFF3B2
:105A98006F8F83F31188BFF36F8F0423184602DFDB
:105AA800EFF31186102383F31288BFF36F8F30460C
:105AB800FFF71CFDFB078FD5002383F31188BFF385
:105AC8006F8F0423184602DF86E703F07F0343F055
