:020000040800F2
:1000000088420024DD330008B99A0008C93300088B
:10001000C9330008C9330008C933000800000000D4
:10002000000000000000000000000000253400086F
:10003000C933000800000000AD350008E560000885
:100040001D3600081D3600081D3600081D36000844
:100050001D3600081D3600081D3600081D36000834
:100060001D3600081D3600081D3600081D36000824
:100070001D3600081D3600081D3600081D36000814
:100080001D3600081D3600081D3600081D36000804
:100090001D3600081D3600081D3600081D360008F4
:1000A0001D3600081D3600081D3600081D360008E4
:1000B0001D3600081D3600081D3600081D360008D4
:1000C0001D3600081D3600081D3600081D360008C4
:1000D0001D3600081D3600081D3600081D360008B4
:1000E0001D3600081D3600081D3600081D360008A4
:1000F0001D3600081D3600081D3600081D36000894
:100100001D3600081D3600081D3600081D36000883
:100110001D3600081D3600081D3600081D36000873
:100120001D3600081D3600081D3600081D36000863
:100130001D3600081D3600081D3600081D36000853
:100140001D3600081D3600081D3600081D36000843
:100150001D3600081D3600081D3600081D36000833
:100160001D3600081D3600081D3600081D36000823
:100170001D3600081D3600081D3600081D36000813
:100180001D3600081D3600081D3600081D36000803
:100190001D3600081D3600081D3600081D360008F3
:1001A0001D3600081D3600081D3600081D360008E3
:0401B0001D360008F0
:1001B8007BB972B90029BEBF00204FF0004106E0AC
:1001C80008BF00281CBF6FF000414FF0FF3000F05F
:1001D80057B8ADF1080C6DE904CE002909DB002BF6
:1001E8001ADB00F069F8DDF804E0DDE9022304B069
:1001F8007047404261EB4101002B1BDB00F05CF8CB
:10020800DDF804E0DDE9022304B0404261EB41017E
:10021800524263EB43037047524263EB430300F0DF
:100228004BF8DDF804E0DDE9022304B0404261EB5D
:1002380041017047524263EB430300F03DF8DDF89B
:1002480004E0DDE9022304B0524263EB4303704744
:1002580053B94AB9002908BF00281CBF4FF0FF3125
:100268004FF0FF3000F00CB8ADF1080C6DE904CE8A
:1002780000F022F8DDF804E0DDE9022304B070475D
:10028800704700BF10F8012B11F8013B012A28BF65
:100298009A42F7D0D01A7047034611F8012B03F899
:1002A800012B002AF9D17047034613F8012B002AC5
:1002B800FBD1181A013870472DE9F0478C468E4655
:1002C800089E154604461946002B40F0D08072451A
:1002D80047D9B2FA82F74FB1C7F120030EFA07FCEB
:1002E80020FA03F3BD4043EA0C0CBC404FEA154E1C
:1002F800A8B2BCFBFEF8230C0EFB18CC08FB00F9D7
:1003080043EA0C43994528D9EB1808F1FF3204D287
:10031800994502D9A8F102022B44A3EB0903A4B220
:10032800B3FBFEFC0EFB1C330CFB00F044EA034459
:10033800A04214D92C190CF1FF3304D2A04202D9DF
:10034800ACF102032C44241A43EA02401EB1FC40DB
:10035800002334607360BDE8F0874246DDE76346FA
:10036800F1E7002A79D0B2FA82F3002B3FD0194680
:10037800C1F1200302FA01F52EFA03F20EFA01FE8A
:1003880020FA03F343EA0E034FEA154E00FA01F48C
:10039800B2FBFEFCAFB20EFB1C201A0C0CFB07F8DC
:1003A80042EA004290455AD9AA180CF1FF3004D20B
:1003B800904502D9ACF102002A44A2EB08029BB294
:1003C800B2FBFEFC0EFB1C220CFB07F743EA0243C0
:1003D8009F4246D9EB180CF1FF3204D29F4202D952
:1003E800ACF102022B44DB1B42EA004202E0AEEB16
:1003F800020301224FEA154EAFB2B3FBFEFC200CFC
:100408000EFB1C330CFB07F840EA034398452AD936
:10041800EB180CF1FF3004D2984502D9ACF1020078
:100428002B44A3EB0803A4B2B3FBFEFC0EFB1C3366
:100438000CFB07F744EA0344A74216D92C190CF120
:10044800FF3304D2A74202D9ACF102032C44E41BC7
:1004580043EA00400F46114678E71F2188E76046C7
:10046800ABE76246BFE76046DBE76346EFE7734505
:1004780006D916B9002108466DE7C6E9000EF9E766
:10048800B3FA83F787B9734501D3824207D8841A30
:100498006EEB030301209C461EB900215BE738463A
:1004A800FAE7C6E9004CF8E7C7F1200CBB4022FA8E
:1004B8000CF51D4320FA0CF12EFA0CF30EFA07FE88
:1004C80041EA0E014FEA154900FA07F4B3FBF9F8BF
:1004D8001FFA85FE09FB18300B0C08FB0EFA43EADD
:1004E80000439A4502FA07F240D9EB1808F1FF30A9
:1004F80004D29A4502D9A8F102002B44A3EB0A03BF
:1005080089B2B3FBF9F809FB183308FB0EFE41EA80
:1005180003418E452CD9691808F1FF3304D28E4562
:1005280002D9A8F10203294443EA0040A0FB02983B
:10053800A1EB0E014145CE46434602D306D14C45B8
:1005480004D2B9EB020E68EB05030138002EA4D0E3
:10055800B4EB0E0261EB030101FA0CFC22FA07F37B
:100568004CEA0303F940C6E9003196E74046C5E77F
:100578004346D9E7000000002DE9F047044688B05B
:10058800884617460AF007FF0A220023FFF760FE95
:10059800B8F1010F06460D4607D102460B46204624
:1005A800274908F0FBFA002011E07F682548394602
:1005B800FFF768FE70B139462348FFF763FE48B17C
:1005C80020463A46214908F005FB6FF0040008B0C0
:1005D800BDE8F0873046294617A3D3E90023FFF783
:1005E800E7FD06460D4610461946194A0023FFF74F
:1005F800DFFD80460F46104619464EF6602200235E
:10060800FFF7D6FD82468946104619464FF47A729E
:100618000023FFF7CDFDCDE902A9CDE90623CDE9F9
:10062800040132462B460B492046CDE9008708F0E5
:10063800B5FAB8E7AFF30080005C260500000000BB
:10064800AACB0008BBCB0008BECB0008C7CB00086C
:1006580080EE3600DFCB000830B50446EFF3118595
:10066800102383F31288BFF36F8F044B0FCB84E8FA
:100678000F0085F31188BFF36F8F30BD8801002408
:1006880001281FB50C4605D004281DD06FF01500B1
:1006980004B010BD0AF07FFE42F210720023FFF78B
:1006A800D7FD104B5A43C4E90001A2606846FFF722
:1006B800D3FF6946204607F01FFF18B90A4B0FCB36
:1006C80084E80F000020E3E70AF065FE42F21072AA
:1006D8000023FFF7BDFD034B5A43C4E90001A260A4
:1006E800F0E700BFA086010030BF000801287FB5F1
:1006F8000D462CD18A68174B9A4228D80AF04BFE2F
:1007080042F210720023FFF7A3FD4042124B61EB47
:1007180041015343CDE900016846029300F0C4F853
:100728002946684607F0E8FEEFF31186102383F3A5
:100738001288BFF36F8F094D9DE80F0085E80F0001
:1007480086F31188BFF36F8F002004B070BD6FF07F
:100758001500FAE7FFC99A3B6079FEFF880100247B
:10076800014B1B68184700BF0000002430B5044641
:1007780085B00D461022002168460AF0EDFE0223DE
:100788002A4621468DF802306846034B019307F04C
:1007980017FA05B030BD00BF690700082DE9F84316
:1007A80040F26C73446905690646E117E41805F1DF
:1007B8000105C76841F10001022D07F1FF378CBF21
:1007C80000230123E41A61F1000100294EDA6FF4D5
:1007D800C7704FF4C8720023201861F10001FFF7B9
:1007E800E7FC254B4FF03C0E032D03FB004402466B
:1007F80034BF09206FF00200D6E90083B6680544CB
:100808004FEAE37C99469920634645430520C6FB99
:100818000E93A9FB0EC602350EFB0366A30840F231
:100828006D1E1CEB080C0EFB043346EBE8763B44CC
:100838006427B4FBF7F4B5FBF0F51B1B0F4C2B44F6
:10084800A2FB042004FB010198180D4A41F10003A2
:1008580080180C4A63F10003A0FB020102FB03119C
:1008680010EB0C0041EB0601BDE8F8834FF4C872A9
:1008780000232046B3E700BF70FEFFFFB13A020035
:100888009405F5FF8051010010B5FFF787FF00249C
:1008980002460B46034902F0CFFE44501046194663
:1008A80010BD00BF0C0000001F4B70B582689A4253
:1008B80015DD0133D0E9001692FBF3F301294FEA65
:1008C800E37476F100051CDAC91844EB0604C0E9A4
:1008D8000014164901FB03238360012070BD002A20
:1008E800FBDA9B1A124ED0E90041B3FBF6F300295C
:1008F80010DA01F100459C4275F100050ADA002082
:10090800ECE7CD439D426FF00045A5EB0605A541F8
:10091800DADAF4E7E41A06FB032261F100018260E7
:10092800C0E90041D9E700BFFFC99A3B003665C45A
:1009380000CA9A3B08B500F0B7F80A49012200231B
:10094800416109490361C0E900220A6007490A6058
:10095800074A1360074A1360074AC0E90233136065
:1009680008BD00BF98CD0008200000241C0000240A
:10097800700500246C050024680500242DE9F04763
:1009880081468846174600F08FF8C36804461BB9AD
:1009980043691A78002A3ED10023E36063684B4517
:1009A80058F8232008DB314B6361204600F060F8DB
:1009B8004FF0FF30BDE8F087511C616192F800A04C
:1009C800BAF12D0FEFD1951C656156782D2EA660D2
:1009D80004D1927872B901336360E4E756B9234DC4
:1009E8005146384665610AF0CFFD0028DDD05646ED
:1009F800C4F808A0314638460AF0C6FD3A2E00D0A1
:100A080070B92B7813B9636801336360204600F02E
:100A18002FF83F20CEE75D1C45611E788660E9E728
:100A280043783A2B0BD0002323612B7813B96368E2
:100A380001336360204600F01BF8A068BAE72B7802
:100A48000A4A33B9636801339945636004DD58F88D
:100A58002350C4E90452EAE7626120463D783A2D02
:100A6800D5D100F005F82846A4E700BF98CD0008C6
:100A78000168084A084B11604168084A116081689A
:100A8800074A1160074AC168116002691A6003F0D9
:100A9800C3B800BF20000024680500241C000024FF
:100AA800700500246C0500240048704704000024E9
:100AB800054B00205A6822F002025A605A6822F058
:100AC80001025A60704700BF0010005C08B5416819
:100AD80005480C3183681B681BB1984700EAE07031
:100AE80008BD6FF05700F9E7B8B70008192810B526
:100AF80002D90024204610BD044B53F8204020465C
:100B08000AF017FA0028F5D1F3E700BFF4C000088F
:100B180008B502F0C5FD02F095FD0C4B0C4A1A60B1
:100B28000C4AD36823F0070343F00203D3600A4B4F
:100B38001A6841F20303B3EB124F06D1074AD2F801
:100B4800083143F00103C2F8083108BD1C01002434
:100B58000090D003004802580010005C008000514B
:100B680010B5044605F08CFB03490246204608F000
:100B780015F8002010BD00BF55CB000837B5134647
:100B8800002205460A21019201AA586801F0D2FC08
:100B9800019C4CB920EAE0700A21A0FB01010AF08F
:100BA8003DFB204603B030BD22460349284608F0E5
:100BB80011F8019CF5E700BF81CB0008034A0449FE
:100BC80008B507F0EBFF002008BD00BF71CC000896
:100BD80078CC0008002307B50090694604488DF8D2
:100BE800043006F0BFFB9DF8040003B05DF804FB79
:100BF8005987000838B50446EFF31185102383F3AD
:100C08001288BFF36F8F05F01DFB024685F311882C
:100C1800BFF36F8F0649204607F0C0FF20460549FD
:100C280007F0BCFF2146044806F0B6FB002038BD9B
:100C3800BACC0008D9CC0008450C000870B58EB0B5
:100C480004460D46D0F8A0600AF00EFA224A034680
:100C580002F0F2FC1158214A2148002B18BF1A460D
:100C6800234600921F4A8C4218BF024628461E4956
:100C780007F094FF28461D49D4E90A23CDE900234B
:100C880094F90E30A28907F089FF06A92022204690
:100C980005F0E2FEA36E02461549284607F07EFFDE
:100CA80005A920460AF0EEF9024628B1114928465E
:100CB80007F074FF0EB070BD059B64222846F11A38
:100CC8004A4300910C49B2FBF6F2CDE90162324683
:100CD80007F064FFEEE700BF08000000E3CC00085F
:100CE8004ED7000816EE0008E6CC0008F2CC000843
:100CF8001ECD000835CD000862CD000830B591B092
:100D080004462022002108AD28460AF025FC1A22B4
:100D1800202128460AF020FC2146104806F03CFB1A
:100D280007AA4FF400610E480AF0A0F9079A642355
:100D38002046C2F5006100954B43DB0A05934FF44A
:100D48000063CDE90313CDE9013206490023044AC3
:100D580007F024FF002011B030BD00BF710D00085E
:100D680048350024B3CD000870B5044688B00D4658
:100D7800D0F8A06007A90AF085F9024628B10F4902
:100D8800284607F00BFF08B070BD20460AF06CF942
:100D9800079B64220096F11A4A43B2FBF6F2CDE9AA
:100DA8000131074B0749002818BF03462846CDE9FB
:100DB8000362224607F0F2FEE5E700BF35CD0008E2
:100DC800E3CC0008FCCD000838B5134605461022D0
:100DD8000021586806F002FE0446FFF7FBFE38B90A
:100DE80022460E49284607F0F5FE6FF0150038BD7B
:100DF8000B4B02F021FC1B589C4204D109492846A0
:100E080007F0E8FEF1E7204605F0E4FF2846224611
:100E1800054907F0C3FE0020E9E700BF60CE0008DF
:100E2800080000007BCE0008A3CE000838B51346A2
:100E3800054610220021586806F0D0FD0446FFF749
:100E4800C9FE38B922460E49284607F0C3FE6FF09E
:100E5800150038BD0B4B02F0EFFB1B589C4204D128
:100E68000949284607F0B6FEF1E720460AF059F985
:100E780028462246054907F091FE0020E9E700BF11
:100E880060CE000808000000E2CE000808CF000885
:100E980038B51346054610220021586806F09EFD15
:100EA8000446FFF797FE38B922460E49284607F050
:100EB80091FE6FF0150038BD0B4B02F0BDFB1B58BF
:100EC8009C4204D10949284607F084FEF1E72046F0
:100ED80002F052FB28462246054907F05FFE002033
:100EE800E9E700BF60CE00080800000043CF000813
:100EF80068CF000810B50C46002108F00BF900B1C6
:100F080000680023024A2060E360C4E9012310BDA1
:100F180088D0000810B50C46002108F0FFF800B191
:100F280000680023024A2060E360C4E9012310BD81
:100F380088D0000870B505465068144608F0FDF8DA
:100F4800064640B962686FF012040F49284607F058
:100F580041FE204670BD09F0ECFF30B162680B49D4
:100F68002846002407F00CFEF3E7304609F0D8FFC6
:100F78006268044628B103460549284607F02AFE58
:100F8800E7E70449ECE700BFA0CF0008B5CF0008A9
:100F9800D7CF000804D000082DE9F04F8FB00446E1
:100FA8008846914601A805F03FFB019F2D4A08217C
:100FB80007EB4017204607F0D6FD019EBE4203D33B
:100FC80000200FB0BDE8F08F35680DB12B7833B92C
:100FD80002AD3346244A302102A806F03DFCB8F1A0
:100FE800020F07D1D9F8041028460AF00BFB08B9FC
:100FF8002036E3E72B461D4A0821204607F0B3FDBB
:10100800304609F096FF1A4A1A4B0821002808BFF3
:101018001346194A204607F0A6FDF369002BE7D0CE
:101028001D68002DE4D02B68002BE1D0AB464FF0B3
:10103800000A124A0821204607F095FD2B685345FF
:1010480005D80F4A0821204607F08DFDD0E75BF848
:10105800043F08210B4A20460AF1010A07F083FDE4
:10106800ECE700BF37D0000841D0000846D00008A0
:101078002ED0000828D00008AECF00084BD00008BA
:1010880097CD000847D00008F7B5137806460F46F5
:1010980015463A2B14D1541C23783A2B28D1013405
:1010A8000A2201A9204606F025FC019A0346386069
:1010B800A24217D01078A8B93C2B15D915490EE0D3
:1010C8000A2201A9284606F015FC019CB860AC422A
:1010D80008D023783A2B05D1172807D90E4930466E
:1010E80007F078FD6FF0150003B0F0BD0134D3E7C9
:1010F8000A2201A9204606F0FDFB019B7860A34265
:10110800F0D01A783A2AEDD13B2801D90349E6E70D
:101118005C1CC5E7F0D00008D2D00008E0D0000879
:101128002DE9F04194B00D460446012006A9174662
:10113800FFF7A6FA0BA906A806F0E0FA032D55D189
:101148007D680A2205A9284606F0D4FB059E80463C
:10115800B54215D032782D2A12D101360A2205A9B6
:10116800304606F0C7FB059B9E4209D01A782D2A07
:1011780006D1451E0B2D0CD92E49204607F02AFD15
:10118800204607F05CFD6FF01505284614B0BDE851
:10119800F0815E1C0A2205A9304606F0ABFB059BD0
:1011A8009E42EDD01B78002BEAD1431E1E2B01D99D
:1011B8002149E2E7A8F26C73BA680E90CDE90F53A3
:1011C8000BA92046FFF760FF0028D9D10BA8FFF72D
:1011D8005BFBB1F1FF3F08BFB0F1FF3FCDE906016E
:1011E80008D11649204607F0F5FCCCE7022DC7D1F7
:1011F8007A68E5E700230893012006A9FFF776FA45
:10120800054628B102460E49204607F0E3FCBAE736
:101218000B9B2046109A03930C9B02F26C720949AF
:1012280002930D9B01930E9B00930F9B013307F0D4
:10123800B5FCAAE700D100080FD100081CD10008AE
:1012480045D100085CD1000810B592B004460120D1
:1012580004A9FFF715FA09A904A806F04FFA099B93
:101268000E9A204603930A9B02F26C720649029377
:101278000B9B01930C9B00930D9B013307F08EFC95
:10128800002012B010BD00BF5CD100082DE9F0416C
:1012980014468846074610220021606806F09EFB27
:1012A800B8F1020F06461CD90A220021A06806F0F0
:1012B80095FBC5B22A461F49384607F06FFCB8F1BE
:1012C800030F1DD8102D0ED0202D0FD0082D0FD1B3
:1012D8003278D2B200231849384607F05FFC002064
:1012E8000CE02025E6E7328892B2F3E73268F1E7AE
:1012F8003846124907F052FC6FF01500BDE8F0813E
:101308001022E068002106F0CFFB0B460246044697
:101318000B49384607F042FC102D06D0202D07D087
:10132800082DE5D1E4B23470D9E7A4B23480D6E709
:101338003460D4E7ABD10008D6D10008C0D100088A
:10134800E9D100082DE9F047002386B04FF0FF35BA
:10135800914601930122524B20262C460746884687
:101368001A60FFF7E7FA4F4A49464046FFF706FB7F
:10137800431C06D1691C41D14B49384607F02AFC69
:1013880017E073281AD0772828D0612811D1DFF800
:101398001CA101AA1021DAF8000001F0CBF8019B8A
:1013A8000546002BDFD0DAF800204149384607F01F
:1013B80011FC6FF0150006B0BDE8F087DFF8ECA06F
:1013C80001AA0021DAF8000001F0B4F8019B0446F4
:1013D800002BC8D0DAF800203649E7E7DFF8CCA0C0
:1013E80001AA0021DAF8000001F0A4F8019B0646E2
:1013F800002BB8D0DAF800202F49D7E7621C01D1BA
:101408002E49BAE75FFA86F8C6F3C406A8F10803BE
:10141800DBB2182B04D82A4A22FA03F3DB0724D4B8
:1014280042462849384607F0B9FBC2E7B8F1100F21
:1014380022D0B8F1200F25D0B8F1080F01D10A78D1
:101448001A70314433444218102AEFD9102CA1469F
:10145800294605F1100528BF4FF0100902AA3846A1
:10146800A4EB09044B4600F05FFFB4B1A642EDD8E7
:1014780002AB2946701BE6E70A8892B21A70120A74
:101488005A70DEE70A68C2F3072C1A70120C83F848
:1014980001C09A70120ADA70D3E720468BE700BFC2
:1014A8001C00002439D2000840D200086805002436
:1014B800FFD1000812D2000825D200085DD200082A
:1014C8000101000177D2000870B50E4E04460D46A2
:1014D800337829B123B10C49BDE8704007F07ABBD5
:1014E80083F0010333702BB10849204607F056FBFF
:1014F80001233370294620460022BDE8704007F0DA
:10150800B8BB00BF1C2A002491D20008CCD2000826
:101518002DE9F04105460C468F18DFF8EC803B4E6C
:10152800A74201D1BDE8F08198F8002014F8013BEA
:10153800182A22D1112B20D1354C002635492846AE
:10154800226888F8006007F029FB28463146FFF733
:10155800BBFF314B18780028E4D1304A2368116862
:10156800042B2EDC08B12360116013F003012FD186
:10157800126813681BBA1360D4E7A3F1300288F825
:101588000030092A04D923F02002413A052A04D858
:101598003168234A5354013131603368022BBFD17B
:1015A800102200211E4806F019FA1E4A136803F893
:1015B800010B1360164A136801331360002333606C
:1015C800AEE70868043B00BA41F8040B0120C7E7FE
:1015D8005B4203F0030358BF5942022904D1126841
:1015E80013885BBA9BB2C6E703299BD110680268CF
:1015F8001104C2F3074302F47F4201F47F010B4355
:10160800134303608EE700BF1D2A0024240600242C
:1016180028060024F6D200081E2A00242C060024DE
:101628001F2A0024300600242DE9F84300230D4624
:1016380026498046264E17460B60264933700B60B4
:10164800012DB94657F8044F1DD9022222492046D8
:1016580009F0A7FF70B9A378003B18BF01231C4409
:1016680002221E49204609F09CFF28B90123337045
:10167800013DE5E70023F2E717492046FEF702FEA1
:10168800C0B909F104090022D9F80400114606F08E
:10169800A5F90022124B11461860D9F8040006F08B
:1016A8009DF9104B104918604046FFF70DFF0020C8
:1016B800BDE8F88323782D2BE5D16378002BE2D0A1
:1016C80022460A49404607F069FAD1E72406002471
:1016D8001E2A00242806002410D3000813D300086B
:1016E800300600242C0600241915000816D300081B
:1016F80013B5094809F01DFC50B1002401233A2212
:1017080005490648009400F063FE204602B010BD6B
:101718006FF01200FAE700BF78B900088CBD000826
:1017280010B54468A360C4E900124268402113461A
:1017380053F8404B516302F1380153620023C2E968
:10174800041308211363C2F8B8301162C2E90A33DE
:10175800C2E90633A36823B19B6C13B10449204640
:101768009847A3689B6A0BB120469847002010BD94
:101778001F88000810B581680446183101F066F921
:10178800A1682046024A1831BDE8104001F0FEB8B1
:1017980091D4000838B583680446D3F88032DB0555
:1017A8001AD4406803685B689847054620B9E06822
:1017B80008F0AAF8A3681D75A3685B6C13B12946E5
:1017C80020469847A368002201F036FFC3F8A422F8
:1017D800034B185801F0D0FE6FF00F05ECE700BF7F
:1017E80008000000014907F0C8B800BF97CD0008FD
:1017F8002DE9F04FA7B004465422002111A809F0A2
:10180800ABFE00232046CDE90533A3685C33029381
:1018180007F0ADFD204607F0F1FC10B96069FFF74D
:10182800E1FFA06814220021002618304FF0FF388D
:1018380009F092FE204607F02EFCA168E068B24647
:10184800B1F8542011AF5C31B3463546B14608F0C3
:1018580020F8204608F081F80396DDE90532012AD0
:101868006BD0132B6CD8B8F1000F2AD1BBF1000F45
:101878000AD0204608F092F8A268142311A95C3215
:101888000DEB030007F0A7FAB9F1000F0CD099F897
:101898001130FE2B08D1059B26AA02EB830252F8D1
:1018A800542C0AB101330593A068436A002B40F019
:1018B800B580C6B1C369B3422BD000F118050D96A7
:1018C80022E00223029A394606A807F084FA7A68C9
:1018D80006990346029231B101290AD148B16A4AF0
:1018E800204607F0F2FD6FF00705284627B0BDE84F
:1018F800F08F059B002B32D0386801F0D7F898B1EB
:1019080066B1A5680D9618350CAE0FCE0FC53368B5
:101918002B6020460125FFF72DFFE6E75B4A0121F2
:10192800204607F0D2FDDEE7059BC3B13A68294699
:10193800204601F057FA022809D1059B132B95D9A7
:10194800069B022B92D1524B0121524AC8E7032829
:1019580005D0059B4FF0010B013305937DE7039BF1
:101968002BB907AA3968484607F00BFB0546043728
:1019780008F1FF38A5B3EB68BBF1000F08D0FBB145
:10198800204607F0F4FC204607F04FFC424AC6E721
:10199800B3B1A368AE46DDF814A003F1180CBEE895
:1019A8000F00ACE80F00DEF80030CCF80030AB6870
:1019B80033B96B7CFE2B04BF95F8108008F1FF3813
:1019C800D5F804C0BCF1000F08D0AE460CAEBEE896
:1019D8000F000FC6DEF8003033606646A94603E004
:1019E800059B63B101230393B8F1000F03D1069B54
:1019F800022B7FF432AF059B013305932DE7A368D3
:101A0800DB6A13B1DB68002BECD1244B0121244A9B
:101A180020460093119B07F058FDE3E7059D90F8D9
:101A28002830A5EB0A05BBB190F829104FF6FF72D4
:101A3800FF2918BF0A469D4202D313449D420BD981
:101A480083690121174A204607F03FFD20466FF0C1
:101A58001505FFF78FFE48E7012106F0ADFFA068E6
:101A680006F09EFFA36811AA29465B6A204602EB8E
:101A78008A0298470546A06806F096FF0021A068EC
:101A880006F09AFF31E700BF9FD40008B3D40008DE
:101A980014D500086DE90008D1D4000800D5000865
:101AA80007D8000838D50008F7B5044680680D4601
:101AB800817D002949D1D0F880325A0504D506F035
:101AC80086FFE06807F0B7FEE368DB6873B9002DAE
:101AD8003BD0A66806F15C07384606F05BFF002895
:101AE80035D0394606F5AE70FEF7D6FBA2680DF183
:101AF80006032946E0685C3207F0A0FE58B9A068E2
:101B080000F5AE715C30FEF7C7FBA0685C3006F0EC
:101B180041FFADF80600204607F022FCA368D3F881
:101B28007C329B0603D50B49606906F026FF2046E8
:101B380000F066FDA268BDF806302046A2F85630CF
:101B4800A268A2F8543007F070FB03B0F0BD86F825
:101B58005C01CBE758BF000810B502228368044631
:101B68001A7583689B6CBBB906F0DEFE8368D3F8F0
:101B78008032DB040BD50321084B094A07F0A5FC8A
:101B8800A0686FF4805100F5207006F0E7FE20464B
:101B9800BDE8104000F0B8BE10BD00BF53D5000826
:101BA80048D000082DE9F04F0023B1B0044609934E
:101BB800A36860689E6C026815691EB3DF6C10220A
:101BC80009AB1BA9A847099BCBB10121A06806F066
:101BD800F3FEA06806F0E4FE3B46099A1BA92046DE
:101BE800B047A06806F0E0FE0021A06806F0E4FE19
:101BF800A3689B6C002BDBD12046FFF7ADFF31B00B
:101C0800BDE8F08F09AB01220DF12301A847099B1C
:101C1800002BF4D09DF923109DF823300029A268E9
:101C2800C6DB517D032900F20C83DFE811F00400C4
:101C3800800297020A030D2B43D00A2B41D0B2F839
:101C48008012092B21F0FF01A2F880126DD028D84C
:101C5800002B00F00281082B00F0EC81A268D2F87A
:101C68007C12890740F1F980013B162B00F2F580C0
:101C7800DFE813F0C402FF010302FB01BE021C02ED
:101C8800F300F300F300F30020022402F30039020A
:101C9800F3003E02F300F300F300F3004002F30008
:101CA80055021B2B3DD07F2B00F0D181A3F12002E0
:101CB8005E2AD3D80121A06806F089FE9DF823107A
:101CC800BBE0D2F88012C9B221B1D2F88012C9B2F1
:101CD8008B42C3D1B2F8801263F30701A2F88012D5
:101CE800A568AB7D012B06D16069FFF77BFDA36872
:101CF80002229A7583E7B5F8541061B9284606F0B0
:101D080066FEE06807F097FD6069FFF76BFD204607
:101D1800FFF722FF4CE72046FFF76AFDC5F8A80247
:101D2800F5E7A36801225A7597E0A068D0F87C32DD
:101D38009B0740F19280012106F049FEA068857D4D
:101D4800002D40F08A80B0F85430FF2B00F08580D9
:101D5800B0F8562000F15C0100F5AE7009F0D5FB33
:101D6800A3681BA90BA8B3F85620134483F85C5149
:101D78001423A26802F5AE7207F02DF80B99142906
:101D88006BD830AB03EB810343F8545CA368B3F81A
:101D98005620002A00F05782134493F85B30202B1A
:101DA80000F0558221B1093B042B4BD9012948D1B8
:101DB80000250A9530AA0A9B002602EB8303B34646
:101DC800374653F854ACB046504606F0E3FD81461A
:101DD80016AA4146284600F073FB0346002840D166
:101DE800012E67D130AA0A9B02EB830353F8540CE7
:101DF80006F0D0FDA268064639461832284600F09B
:101E08005FFB0568284606F0C5FD864205D0821BA3
:101E1800A919204692B207F09FFBA068B0F8563087
:101E2800034493F85C30202B33D0093B042B30D982
:101E3800D0F87C32DF0731D42021204600F02CFD79
:101E48000BE0013900200CAB1BAA00930AAB0190F0
:101E580007F0C3F805460028ACD1606906F014FF06
:101E6800A6E61B684A4651461846039309F099FBB3
:101E780060B9039B1846FEF717FA584538BF58460D
:101E8800002E08BF474601361FFA80FB08F10108FB
:101E98009EE70121204607F0FCF9DEE7002106F065
:101EA800A1FD2021204600F0F7FC0121A06806F0E2
:101EB80099FDD2E70490D0D930AB0A9AB94603EB22
:101EC800820252F8543C1846039306F063FD049BC3
:101ED800A2680690A2F840300496A26849462846AF
:101EE80009F10109183200F0EBFA039BD0F800A0C1
:101EF800D4F80880002B38D0BAF1000F38D0069AF1
:101F08001946504609F04DFB0028E6D1BD4806F0B9
:101F180041FDB8F83A2000EB0B01121A504689B27D
:101F280092FBF1F292B20591079206F033FD059902
:101F3800079A091A8BB2B8F84010481C0593A8F8FC
:101F48004000B1FBF2F002FB101189B200295ED10A
:101F5800AC4B0621AC4A2046CDF800A007F0B5FAF4
:101F68000599204600F036FB05E0BAF1000FCDD107
:101F78000023A8F84030049B013B0493ADD160696D
:101F880007F10109FFF72EFC204600F0BDFC30AA3E
:101F98000A9B02EB830353F8540C06F0FBFC39460A
:101FA80011AA8046284600F08BFA0746A068FF224F
:101FB800396800F5AE7009F006FB3B684FF6FF770D
:101FC8000393BA4616AA4946284609F1010B00F0C0
:101FD80077FA18B3A1680022036801F25B1111F8BF
:101FE80001EF985C704503D110B101325245F6D12A
:101FF800B8F1000F01D0424507DBBA4206F1FF36BF
:10200800A8BF3A46012E97B208D0D946DAE7534618
:102018007E4A0621204607F058FAA1E7002F3FF430
:102028001CAFA7EB08020399204692B2414407F07F
:1020380093FA12E7A068D0F87C329E077FF50DAFBF
:10204800012106F0C4FC204607F0A7FA05E7A068BE
:10205800D0F87C329D077FF500AF012106F0B7FC70
:10206800A368D3F87C321807EDD4204607F076FA37
:10207800F3E6204607F084F9EFE6204607F077F903
:10208800204607F0BBF810B96069FFF7ABFB0121E8
:10209800A06806F09CFCA3689A7D012A02D103225D
:1020A8009A75DAE62046FFF757FDD6E6204607F090
:1020B80070F9D2E6204607F077F9CEE6D2F87C32FE
:1020C8009F0603D55249606906F057FCA368D3F808
:1020D8007C329E0603D54F49606906F04EFC2046C7
:1020E80000F012FCB9E600212046FFF7DDFCB4E65B
:1020F8000121F9E7204607F033F9204606F014FCE1
:102108000121A06806F063FCA368D3F87C329D0621
:102118007FF5A3AE4049606906F02FFC9DE6204696
:1021280000F0E8FA0121A06806F051FC95E65B2B67
:1021380002D10223537590E6D2F87C22900706D587
:10214800622B07D14FF0FF31204607F0CAF8A36889
:102158000022E8E5662BFAD10121F5E70021517547
:10216800A268D2F87C1289077FF522AD313B1B2B80
:102178003FF673AE01A151F823F000BF0122000819
:102188002522000839220008F5210008631E0008EE
:10219800631E0008631E0008631E0008631E000813
:1021A800631E0008631E0008631E0008631E000803
:1021B800631E0008631E0008631E0008F92000085B
:1021C800EF200008B52000087B200008631E0008E7
:1021D800F9210008631E000805220008631E000894
:1021E800631E0008631E0008292200080323537594
:1021F800204607F0BCF830E603235375204607F065
:10220800AFF82AE64DD7000897D5000848D000084F
:102218005DBF000862BF000858BF0008032353755C
:10222800A068D0F87C1201F0010181F001013EE6BE
:1022380003235375A368D3F87C329B077FF50DAE53
:1022480013E7002376E700297FF4B0ADB0E5002955
:102258007FF4F8ADACE500BFF7B5044680681546D5
:1022680000F52070002932D04FF4804106F067FB5A
:10227800A36800211D65606803689B68984758BB80
:10228800204606F006FC38BB4FF0FF364FF0FF370C
:10229800A06800F5217000220721CDE9006709F048
:1022A80031F9A06806F080FB0C4A0421204606F0AC
:1022B800A8FB20460A4A012106F0A3FB60680368D0
:1022C8005B6903B19847A06806F06AFBE0E76FF422
:1022D800804106F043FBCBE703B0F0BD9D17000833
:1022E800698A000810B504460A4906F057FC0A49ED
:1022F800204606F053FC2046084906F04FFC2046CD
:10230800074906F04BFC2046064A002100F03EFB38
:10231800002010BD9DD50008DBD500083AD600087E
:102328008ED6000829D70008F8B5002516460A46B3
:10233800204904461F4606F031FCAF420ED9725DB3
:1023480020461D4906F02AFC0135102D0BD06A07DE
:10235800F3D11A49204606F021FCEEE71849204639
:1023680006F01CFCF0E700251649204606F016FC8E
:10237800BD4213D2725D20461349A2F120035F2BA0
:1023880028BF2E2206F00AFC0135102D0BD06B0752
:10239800EED10A49204606F001FCE9E70749204644
:1023A80006F0FCFBF0E720460849BDE8F84006F0D7
:1023B800F5BB00BF3FD7000846D700084ED7000836
:1023C8004CD7000850D7000872D7000852D7000829
:1023D8002DE9F0410446806888B08846D0F8A462A8
:1023E80015461F46002E50D14FF42B72314609F086
:1023F800B3F8A06800F5217009F077F8A06800F537
:102408002570012266F38205114608F01BFEA369B8
:102418004FF400711E60A06800F5207006F08FFA76
:10242800A368502220465A871822A3681A87216871
:1024380006F0DEFBA368164A4146C3F87C52606882
:1024480003681D682346A8470546D0B9A36801223A
:102458001A75D4E909010022002304950094CDE9F6
:1024680006230E234FF4006203930E9BCDE90173FC
:10247800084B04F099FBA368C3F8A402216A04F08E
:10248800DBFA284608B0BDE8F0816FF07705F8E779
:10249800558A00086122000810B5044613460A460A
:1024A8000146064801F016F923691B7923B1204635
:1024B800BDE8104006F0E8BB10BD00BFA98C0008BD
:1024C80038B50B46154648B91449154A521AB3EBA4
:1024D800920F05D251F82350284638BD84680CB9AC
:1024E8000025F9E70F4A94420AD30F4A944207D2CB
:1024F80018462268294690472B68002BECD1EFE755
:102508000A4A944202D30A4A944205D32468142200
:102518005343E518E358F0E70133F8E7B8BD00087E
:10252800ECBD0008F0BE00082CBF0008ECBD000898
:10253800F0BE0008F7B50378044615462D2B05D1E3
:102548006FF0150300202B6003B0F0BD00230C4F83
:1025580001F072F80646C3510A46204601A905F063
:102568003DFAF359222B02D16FF02103EAE7002B41
:10257800E6D1019BA342E3D01B78002BE4D0DFE730
:102588000C0000008368D3F87C329B0603D502490F
:10259800406906F014BE704768BF0008014906F09C
:1025A8000EBE00BF97CD00080A1E0DDC0ED04223D8
:1025B8008168D1F87C12890608D5002A0449406947
:1025C800B8BF524206F0FBBD4123F1E7704700BF98
:1025D8006ED700080A1E0DDC0ED044238168D1F89E
:1025E8007C12890608D5002A04494069B8BF5242BE
:1025F80006F0E5BD4323F1E7704700BF6ED700083A
:102608002DE9F0478468054604F15C00FDF74CFEAF
:10261800002287B294F83C809146668FA6EB0806A4
:10262800BE4209DB002F21DD5C3268691049224473
:10263800BDE8F04706F0C3BD16445C320D4934448A
:1026480094F85CA084F85C90AB6868691A4406F05A
:10265800B6FDAB683246334483F85CA0AC68638F40
:10266800A3EB08034FF00008FF1AD6E7BDE8F08790
:1026780048D000086DE9000808290A4617D8836879
:1026880093F83E10914212D083F83E20082A8368BE
:10269800D3F87C3205D0990609D50549406906F07A
:1026A8008EBD9B0603D50349406906F088BD704777
:1026B80075D700086DBF000838B50D46097804467F
:1026C800FFF7DAFF6A78072A11D8A36893F83F1052
:1026D80091420CD083F83F20A368D3F87C329B0644
:1026E80005D560690249BDE8384006F068BD38BDC7
:1026F8007ED70008F8B583680446B3F85420002A4A
:1027080055D0B3F85610002951D05B3103F15C0560
:102718000B441846A84206D3014611F80169202E39
:102728003CD0A8423CD286B2471C9DB2AB1B9BB2A0
:10273800591CD21A0144384608F0F5FEA268711BEC
:102748002046B2F8543013FA81F309B2A2F8543093
:10275800A368B3F854201344002283F85C2006F0E1
:1027680098FDA368D3F87C329A0603D510496069AE
:1027780006F025FD3B460F4A0821204606F0A5FE37
:102788002046FFF7FFFEA368D3F87C329B060ED5E0
:1027980060690949BDE8F84006F011BD0846B9E787
:1027A800014611F80169202EBDD00846B9E7F8BDE9
:1027B80072BF000848D0000876BF00082DE9F0472E
:1027C80004460F4690460AB1FFF7DCFEA668D6F825
:1027D8007C32B6F856505B0723D505F15C003044CF
:1027E800FDF762FD0546B5B9A368B3F85420A3F810
:1027F8005620A06806F0F0FC30B1B8F1000F00D008
:1028080017B16069FFF7CAFE7942204609B2BDE8F0
:10281800F04706F03EBD1D49013D606906F0CFFC5A
:10282800E1E73046AA46FDF73FFDB6F85490738FAE
:1028380019FA80F915FA80F0B0FBF3F2B9FBF3F35B
:102848009A421AD04845A368CEDA5A8F451CB0FB85
:10285800F2F302FB130313B96069FFF79FFEA36845
:102868000AF1010620460A4A53440821B24693F861
:102878005C3006F02AFE2846E4E75C35054A082164
:102888002046731906F021FEAEE700BF16EE0008D9
:1028980072D7000848D0000813B5836804468DF83D
:1028A8000710D3F87C22D00725D5B3F85610B3F813
:1028B80054208A421FD0481C9DF80720A3F85600D0
:1028C8000B4483F85C20A368D3F87C12890710D5E1
:1028D800D3F87C32606913F0040F0A4918BF2A2222
:1028E80006F06DFC204606F089FC10B16069FFF720
:1028F80055FE02B010BD01220DF10701204606F079
:10290800F1FDF6E772D7000810B5836804469A7D92
:102918001AB9094A022106F0D8FDA368D3F87C3217
:102928009B0707D52046FFF76BFE2046BDE8104001
:1029380006F08ABC10BD00BF48D00008014906F067
:1029480066BE00BF97CD0008F8B50F46516805462A
:1029580016461C4611B11A4606F066FEB3688BB1DE
:1029680021462846FFF736FE074A08213B462846F7
:1029780006F0ABFDB168E21D21B12846BDE8F8407C
:1029880006F052BEF8BD00BF87D700082DE9F04316
:102998000E46002189B0044617460D4603AA304664
:1029A80001F10108FFF78CFD88B96DB127B13A46EE
:1029B8000821204606F089FD002103AA304601F1CE
:1029C8000108FFF77DFD60B909B0BDE8F083006834
:1029D80010B1FDF769FC80B28542414638BF054613
:1029E800DCE7D0F80090B9F1000F0FD099F800306B
:1029F80063B147680821124B2046124ACDE90059B5
:102A080006F063FD27B96069FFF798FF4146D4E7F0
:102A18000B4B20460C4A082106F057FD384606F0B5
:102A2800E4FDAB1D9BB228B13A4649462046FFF764
:102A38008BFFEBE71A463946204606F0F5FDE5E739
:102A48001CEE000892D7000899D70008F7B50F6860
:102A580005460E46D7B13846FDF726FC84B2114B21
:102A680008212846104A00933B4606F02EFD71685F
:102A7800084606F0BAFDE31C9BB248B10A46284650
:102A8800316803B0BDE8F040FFF75EBF3C46E6E7BB
:102A980031B11A46284603B0BDE8F04006F0C4BD7F
:102AA80003B0F0BD18EE000898D5000810B5074926
:102AB8000446FDF7E7FB38B105492046FDF7E2FB80
:102AC800B0FA80F0400910BD0120FCE79ED700084D
:102AD800A1D7000810B583680446D3F87C329B065A
:102AE80003D50649406906F00BFEA3685022002072
:102AF8005A871822A3681A8710BD00BF7ABF00083A
:102B080008B5836902491A6806F048F8002008BD2C
:102B1800A8D70008F7B50D4905460D4C06F03EF854
:102B28000C4E0022B44202F1010702D3002003B088
:102B3800F0BD236A92B20849284600932C3454F811
:102B4800243C06F02BF83A46ECE700BFB8D700085B
:102B58008CBD0008B8BD0008D0D70008024908B5E8
:102B680006F046F8002008BD98CD000837B50446A1
:102B78000025A2680DF106030121E06802F5AE7296
:102B880006F05CFEBDF80600A36840B12A4603F5CE
:102B9800AE7305492046013506F000F8E9E783F8E9
:102BA8005C0103B030BD00BFE1D7000810B5044692
:102BB80006F057F803490246204605F0EFFF0020CB
:102BC80010BD00BF0CD30008022907B50BD153680C
:102BD8000C4900930C4B126805F0FCFF6FF01500D0
:102BE80003B05DF804FB8368084AD3F87C320849CF
:102BF80013F0020F074B18BF1A4605F0CFFF00204D
:102C0800EEE700BF04D80008EFD70008EBD70008AC
:102C18000DD8000890CC000810B583680446D3F896
:102C28007C329A0603D50749406906F069FDA36816
:102C3800D3F87C329B0603D50349606906F060FD32
:102C4800002010BD81BF000886BF00080129F0B52B
:102C5800044685B00BD053686FF015055B490093A7
:102C68005B4B126805F0B6FF284605B0F0BD8368D7
:102C7800D3F87C329A0603D55649406906F040FDE0
:102C88006FF0F9012046FFF78FFCFA212046002556
:102C9800FFF7A0FCA0684FF48072294600F5AE70DB
:102CA8008DF80B504FF47A7608F056FC4A49606963
:102CB80006F026FD606905F0E7FF606801220DF166
:102CC8000B0103681F6903ABB847039B53B9013E67
:102CD8004FF47A7008F0FDF8B6B2002EEDD16FF01F
:102CE800850534E09DF80B20A3681B2A60D093F873
:102CF8005C111B29E1D1522A5AD15A19002382F8B2
:102D08005C31A66896F85D215B2A38D106F25D151C
:102D1800022015F8011F024601303B2980B231D14B
:102D2800FF2ADCD002F5AE7216FA82F1002211F801
:102D3800015F002D30D1FA2A86F85C51A16828BFBE
:102D4800FA22FA2B4A8728BFFA23A2681387A368B6
:102D5800D3F87C329B0603D52049606906F0D0FC85
:102D6800002D81D0A36850221D4920465A87182279
:102D7800A3686FF007051A8705F01EFF74E786F849
:102D88005C31ACE703EB83033039B0F5807F01EBAE
:102D980043018BB2BDD1A2E7013002EB8202303D84
:102DA80080B205EB4205B0F5807FAAB2BFD196E7A5
:102DB8002B440135ADB283F85C21092D7FF67DAF38
:102DC800A368002283F85C2189E700BF04D80008C3
:102DD800EFD700088CBF00081FEE000890BF00085E
:102DE8001ED800082DE9F04F074689B015468946D8
:102DF80021B1104606F09DFD00285BD1032455E063
:102E08005C463CE029460AF5AE7008F0FBFB064636
:102E1800002854D0FDF748FA314682B2601C08F108
:102E280001080132304408F07EFB224659463046FC
:102E380008F06BFB4FF020033355BAF858300133D4
:102E48001C44AAF85840002401994B1C03AA484680
:102E58000193FFF735FB0646E8B1002231682846A2
:102E680006F057FE0028EFD1D6F800B0D7F808A032
:102E7800BBF1000FC4D05846FDF716FA84B2BAF871
:102E880058302344FF2BBDDD01242B460D4A032176
:102E9800384606F01AFBB8F1000F07D0B8682A4682
:102EA80000F1580100F5AE7006F044F8204609B06C
:102EB800BDE8F08F4FF0000802244146C5E7022420
:102EC800E9E700BF1BDD000880B505460E4617463A
:102ED800984604F001F9DFF82090034600F0ACFBB7
:102EE8000446424649F8003039463046A84754F867
:102EF800090000F041FB00BF080000000348002162
:102F0800034A08B5121A06F0CBFD08BD8801002453
:102F1800482B00240748084A0849121A08B506F041
:102F2800C1FD0748074A0849121ABDE8084006F0DB
:102F3800B9BD00BF000000248801002434EE000859
:102F4800000000240000002434EE000838B50546CF
:102F58000C4699B11048D1E90123096805F0FEFA39
:102F6800E1680E48D4E9042305F0F8FAE1690C4851
:102F780005F0F4FAA1690B4805F0F0FA012D05D126
:102F8800EFF305810848103905F0E8FA214628468C
:102F9800BDE8384003F0A4BB6DDD00089DDD0008E6
:102FA800CDDD0008DDDD00080CDE000830BFFFF7CE
:102FB800FDBF00BF2DE9F0410B4E0546DFF82C8020
:102FC800324606EB0807CC1B0949204608F09DFA53
:102FD800A019083C4246002108F0BEFA07F1080093
:102FE800C5F8AC40BDE8F081000000000800000012
:102FF8002CBF000810B51D4C1D4805F0AFFAA36A98
:10300800990130D51B4805F0A9FA1E20A36ADA01F8
:1030180003D5194805F0A2FA1F20144CA36A1B0314
:1030280003D5164805F09AFA2120A36A590303D557
:10303800134805F093FA22200C4CA36A9A0303D58F
:10304800104805F08BFA2320A36ADB0303D50E484A
:1030580005F084FA2420054A936A6FEA03436FEA6D
:103068001343936210BD1D20D0E700BF00ED00E0C0
:1030780020DE000839DE00084DDE000868DE0008A2
:1030880087DE0008ADDE0008C8DE000870B5244CF5
:10309800064624480D4605F061FAA36AD90435D5D9
:1030A800214805F05BFA1720A36A1A0503D51F48C3
:1030B80005F054FA18201A4CA36A9B050FD51C4832
:1030C80005F04CFAA16BA36A180407D5194805F056
:1030D80045FA1EB1A36A23F40043A3621920104CD9
:1030E800A36A590503D5144805F038FA1A20A36ACB
:1030F800DA050DD5114805F031FA1B20084A936A04
:1031080043F47F43936200232B7070BD1620CBE7F6
:10311800A36A9B04F2D50A4805F020FA1C20EDE7C3
:1031280000ED00E0F4DE00080BDF00081DDF0008FA
:1031380031DF00084BDF000861DF00087DDF000891
:1031480096DF000870B5264C064626480D4605F061
:1031580005FAA36AD80640D5234805F0FFF91120DF
:10316800A36A190703D5214805F0F8F912201C4C69
:10317800A36A9A070FD51E4805F0F0F9616BA36A98
:103188001B0607D51B4805F0E9F91EB1A36A23F011
:103198008003A3621320124CA36ADE0703D51648E6
:1031A80005F0DCF91420A36A9C0603D5134805F042
:1031B800D5F915200A4B9A6AD10600D49A6A9A6AF8
:1031C800920603D55A6A22F400525A629A6A42F069
:1031D800FF029A6200232B7070BD1020C0E700BF69
:1031E80000ED00E0C6DF0008DDDF00081DDF000895
:1031F80011E000082AE0000841E0000896DF000816
:103208005E4B2DE9F0415F688AB004460025C7F39C
:10321800080685F31188BFF36F8F02F07F43B3F17F
:103228007F4F06D102F00C03082B13D1544805F048
:1032380095F900252C464FF00008F31E8DF80780FD
:10324800092B00F28C80DFE803F00A80847C8A8AEC
:103258008A8A8A8810074CBF0C460125EBE7474E3F
:10326800484805F07BF98DF80780F36A9A0704D57A
:10327800454805F073F900232AE0F36A002B01DAC8
:103288004248F6E7F36A5B00F5D5414805F066F970
:103298007369A26943F480737361BFF34F8FBFF3FF
:1032A8006F8F32F8023C726922F480727261BFF348
:1032B8004F8FBFF36F8F03F47F42B2F55F4F28D172
:1032C800DBB2022B25D12168324805F047F9236883
:1032D8009DF80720D2B902AE04F12007206808340F
:1032E80054F8041C3246BC4203C21646F6D1099A69
:1032F800002D40D0C2F3080121B96FEA52226FEACB
:103308004222099202A91846FFF720FE0AB0BDE83A
:10331800F0811A4B9A6AD2B22AB10DF10701012045
:10332800FFF710FF0FE09A6A12F47F4F05D00DF1F6
:1033380007010120FFF7AAFE05E09B6AB3F5803F6D
:1033480099D3FFF757FE0346C2E70DF107010020A6
:10335800E6E70DF107010020ECE70F4889E717F4CD
:10336800F87F0E4B0E49A6F1100208BF19460D480A
:1033780005F0F4F87FE76FF30802C2E700ED00E01C
:103388008FE00008BBE00008D3E00008F5E0000883
:1033980004E1000824E1000841E1000861E00008B8
:1033A80076E0000866E10008044B5A6942F0100212
:1033B8005A615A6922F008025A61704700ED00E02C
:1033C800EFF30880EFF3098101B57246FFF718FFA4
:1033D80001BD00BF0F4880F3088805F0B8F9102038
:1033E80080F311880C484FF0AA014FF4006206F0F0
:1033F80057FB09484FF40061401880F30988EFF340
:1034080014800221084380F31488BFF36F8F00F003
:1034180049F8000088420024483500241EF0040FB3
:103428000CBFEFF30880EFF30980816911F8021CE3
:103438000229FFD001B5724606F036FB01BD00BF78
:1034480000B2002807DB0123410900F01F00024AEF
:10345800834042F82130704700E100E000B20131BA
:1034680000284FEA0111C9B206DB00F1604000F5FF
:10347800614080F80013704700F00F00014B1954A9
:10348800704700BF14ED00E0044B054A23F07F03AA
:103498009360BFF34F8FBFF36F8F70470000000832
:1034A80000ED00E008B5FFF7EFFF0C4AD2F88830CE
:1034B80023F47003C2F88830EFF3148323F0040375
:1034C80083F31488BFF36F8FFFF718FDFFF722FD12
:1034D80000F094F806F00EFB03F0D6F900ED00E0DA
:1034E80042F8203C203A009B08495360019B21F098
:1034F80001019360029B9161D3604FF08073D361A7
:1035080000230265C0F8B030704700BFD12E000814
:103518000C4B15460E4600B59860D0F8AC200A4B07
:103528001A602C4686F309880020044B98472046E9
:10353800002100220023024C20470000D59A0008F1
:10354800D12E0008EC290024E4080024014B1022A5
:103558001A61704700ED00E0054B5A699B689A4272
:1035680004D0044A536843F080535360704700BF47
:10357800EC29002400ED00E0084B9B6883420BD146
:10358800EFF3058343B1064B5A6842F080525A6004
:103598005A6A22F400425A6203F0A4BDEC290024BE
:1035A80000ED00E012498A684FF030001044EFF354
:1035B800098C80E8F01F102080F31288BFF36F8F0A
:1035C8000C4F4FF000664A698A603E60D2F8AC0042
:1035D800094C2060D2F8B0000023C2F8B03080F364
:1035E800118802F1300090E8F01F8CF309887047C9
:1035F800EC29002404ED00E0E4080024002304483A
:103608001021C21801335D2B82F80013F9D17047DD
:1036180000E100E008B5EFF30583064A103B02EB32
:10362800C30152F8330049688847BDE80840FFF7EE
:1036380093BF00BFD8B90008014800687047000070
:10364800E4080024154A70B5536913F4803323D174
:10365800C2F88430BFF34F8FD2F8803043F6E0745D
:10366800C3F3C900C3F34E335B0103EA0406014602
:1036780046EA81750139C2F86052F9D2203B13F14C
:10368800200FF2D1BFF34F8F536943F48033536156
:10369800BFF34F8FBFF36F8F70BD00BF00ED00E029
:1036A8000B4B5A6912F4003211D1BFF34F8FBFF39D
:1036B8006F8FC3F85022BFF34F8FBFF36F8F5A69D4
:1036C80042F400325A61BFF34F8FBFF36F8F7047D8
:1036D80000ED00E0F0B587B007460E46144600211D
:1036E800102268461D4607F037FF02232A46214666
:1036F8008DF802306846044BCDE90476019304F056
:103708005FFA07B0F0BD00BFFF9A000806490748F6
:1037180021F00701C1F1105208B502F5002204F0AA
:1037280099FE002008BD00BF8F420024E80800244D
:103738002DE9F04F91B01D4606460C461A9B93465C
:10374800002B00F04B82B146294619F8010B06F010
:10375800D8F90246207806F0D4F93F2A07465FFADE
:1037680080F821D006DC92B12A2A32D0D2B2424562
:103778002DD01EE05B2A7DD05C2AF7D1EB07F6D46A
:10378800707806F1020906F0BCF9C2B2EFE7E80664
:1037980002D5B8F12F0F03D0B8F1000218BF0122EB
:1037A800104611B0BDE8F08F18B12F2803D1A90732
:1037B8000DD50122F4E72E2809D16A0707D55C4503
:1037C800F7D0AB0703D514F8013C2F2BF1D0013407
:1037D8002CE0707806F095F9C1B22A2918D02E2F5E
:1037E80009D16F0707D55C45E3D0AE0703D514F8B8
:1037F800013C2F2BDDD079B915F00202D0D0ED06AF
:1038080000F1EE812F21204607F0BEFE021EC5E71B
:10381800294619F8010FDDE72F2909D1A80707D58F
:10382800204607F0B1FE04460028C2D04E468AE77B
:103838001A9B05F0020A5F1E2646B8F1000FB8D0A1
:103848005A462B46214648460097FFF771FF024625
:103858000028A5D02946307806F053F92F2804F11E
:10386800010404D1BAF1000FA3D12646E8E75FFAB4
:1038780080F8E1E700289CD02F2848D1AA0798D4DF
:103888007378212B01D05E2B4FD1B31C05930123F4
:1038980029463846069306F034F9C3B20646002294
:1038A8000493A0F14103192B099394BF002301232A
:1038B8000F93A0F120035E2B94BF002301230E93E6
:1038C800A0F16103192B089394BF002301230D93E2
:1038D800A0F121035D2B0B9394BF002301230C93CC
:1038E800A0F13003092B079394BF002301230A9307
:1038F800059B0393039B1B785D2B1ED1059B0399A6
:103908008B4222D2069B01F1010993425EE72E28E1
:10391800B6D16B07B4D55C453FF44BAFA807AFD51C
:1039280014F8013C2F2BABD143E70023CDF81490BA
:10393800AEE70122CDF80CA0DCE7002B00F04C81AB
:103948002F2B38D1A9073FF534AFDDF80CA0294655
:103958001AF8010B06F0D5F80399C3B249782D2956
:1039680040F0348103998978002900F02F815D297E
:1039780000F02C8103985C2900F1020A04D1E907C0
:103988005CBF014601F1030A29461AF8010B0393AB
:1039980006F0B7F8002800F01F8115F0080F039B08
:1039A80040F00E810499C0B29942C3D3814298BFB6
:1039B80042F00102BEE703995C2B497805D1EB0779
:1039C800C3D4039B01330393BFE75B2BBDD13A29D3
:1039D800BBD1039B0020991C03468A4611F801CBF2
:1039E800BCF1000F46D17F497F4FBB4208BF8842D8
:1039F80000F0DB80814277EB03015AD3A7F510274B
:103A08006FF4817C79496744BB4208BF884200F063
:103A1800BA80814277EB030137D3A7F500377449A1
:103A2800A7F50177BB4208BF884200F09A8001F1F0
:103A3800C16107F57F4701F50031F137BB4208BF87
:103A4800884200F0988001F1E061DFF8A8C101F533
:103A58000031634508BF88427FF477AF26F0200322
:103A6800413B192B7FF665AF079B092B98BF42F0A6
:103A780001025FE711F802ECBEF15D0FB3D01B0243
:103A880043EA10634CEA0020A7E75B495B4FBB425F
:103A980008BF884200F08E8007F1E047584907F5D3
:103AA8007437F6378B4208BFB8427FF44EAF0C9B91
:103AB8007CE05449544FBB4208BF88426BD08142D6
:103AC80077EB030129D3A7F53F375049A7F5FC77D2
:103AD800BB4208BF88426FD007F1C6474C4907F57B
:103AE800713707F57D778B4208BFB8427FF42DAF59
:103AF8000B9B0E2B7FF61DAFA6F13A03062B7FF624
:103B080018AFA6F15B03052B7FF613AFA6F17B0375
:103B1800032B98BF42F001020CE732493D4FBB42EC
:103B280008BF88424AD007F1F04701F180616FF47D
:103B3800E16CA7F5881701F500316744BB4208BF5F
:103B480088427FF402AF079B092B7FF6F2AE099BF0
:103B5800052B7FF6EEAE089B052B98BF42F00102BD
:103B6800E8E6099B192B7FF6E4AE089B192B98BF52
:103B780042F00102DEE6202E3FF4DBAE092E08BF3C
:103B880042F00102D6E61F2E7FF7D3AE7F2E08BF84
:103B980042F00102CEE6202E3FF4CBAEA6F1090397
:103BA800042B98BF42F00102C4E60D9B83F0010389
:103BB8001A43BFE60A9BF9E70E9BF7E70F9BF5E769
:103BC800A0F14101192998BF2030EBE604999942E8
:103BD80008BF42F00102ADE65B22C8E50322DFE53B
:103BE8000A46DDE55D3A7265776F6C005D3A6C7286
:103BF8005D3A61686E6C61005D3A7469676964007A
:103C0800617267005D3A6563617073005D3A746E56
:103C18006E757000707075000268064B1A60426815
:103C2800054B1A608268054B1A600269044B1A60DA
:103C3800704700BFFC080024F8080024F40800249A
:103C48000009002407B5084A92E80300CDE90001FD
:103C580006488268126822B16946904703B05DF849
:103C680004FB6FF05700F9E750BF0008B8B7000829
:103C7800044B03EB40000023013320F8022B8B4256
:103C8800FADB70472C0100242DE9F0410546002697
:103C98000F4F4FF00108F4B26B78A34201D8BDE88A
:103CA800F0812B781C44204605F03DFF68B1204682
:103CB80005F055FF57F834303BB107EBC40204F068
:103CC8001F04516808FA04F098470136E3E700BF7B
:103CD80004090024034680B1B0FA80F2C2F11F0241
:103CE800D2B2074931F912004FF0B042D2F8801031
:103CF8000B43C2F88030FFF7A3BBFF22F1E700BFF8
:103D08002C01002430B5B0B1B0FA80F3C3F11F0321
:103D1800DBB20B4850F833408C4204D100EBC305AA
:103D28006D68954205D044B940F8331000EBC300E4
:103D38004260002030BDFF23EBE76FF00F00F9E78A
:103D48000409002460B1B0FA80F3C3F11F03DBB2A9
:103D5800044A002142F8331002EBC3025160704755
:103D6800FF23F5E70409002400F003020F230432BF
:103D780092009340094A43EA900000F0030302339B
:103D880052F82320030C02EA104293FAA3F008B178
:103D9800B0FA80F022FA00F0704700BF0004005823
:103DA800204B10B518680B88C3F30B03D42B25D010
:103DB80014D8042B2CD004D8012B06D06FF0850022
:103DC80025E00A2B03D8072BF8D9174819E003F682
:103DD800EE73C3F30B03012B10D9EFE703F6287337
:103DE800C3F30B031C2BE9D8012404FA03F30F4C8B
:103DF800234205D140F211142342DFD0400800E0ED
:103E0800800810600968B1F5805F03D2002010BDFA
:103E18000748F6E7C1F313310131B0FBF1F3136042
:103E2800F4E700BF1C01002400389C1C001011118D
:103E380000127A00724B13B5D3F8E02042F00072FA
:103E4800C3F8E020D3F8E02002F000720192019A52
:103E58001A6842F480221A601A6842F480321A60A2
:103E68001A689103FCD500230093664B9A6942F4C3
:103E780040429A619A6902F440420092624AD16AC9
:103E880041F00101D162D26A02F001020092009A67
:103E98009A699204FCD55A4B1A691A6902F03802D9
:103EA800182A16D11A68540706D41A6842F0010273
:103EB8001A601A685007FCD5514B1A6922F007029C
:103EC8001A611A6912F0380FFBD19A6922F00F02B1
:103ED8009A614B4C236823F080732360236823F096
:103EE80080632360236823F080532360A36A23F050
:103EF800030343F00203A362A36A23F47C7343F031
:103F08002003A362E36A23F00C0343F00403E36293
:103F1800E36A23F00203E362236B6FF3080343F0C1
:103F2800EF032363E36A23F00103E362236B23F4C3
:103F38007E4343F400732363E36A43F48033E3620C
:103F4800236B23F4FE0343F480332363E36A43F4CF
:103F58000033E362236B23F0FE4343F08073236353
:103F6800E36A43F48023E362236843F080732360A9
:103F780023689901FCD5254802F0DCFAA369204A98
:103F880023F47063A361A36923F00F0343F00803CC
:103F9800A361E36923F0700343F04003E361E3693D
:103FA80023F4E06343F48063E361A36923F07003BF
:103FB80043F04003A361236A23F0700343F04003F6
:103FC8002362236923F0070343F003032361136982
:103FD80003F03803182BFAD10A4B9A6942F440428D
:103FE8009A619A699204FCD5054A0020136923F462
:103FF80000431361064B074A1A6002B010BD00BFA8
:10400800004402580048025800040058001C4E0E94
:104018001C01002400389C1C132808D8054BC340F9
:1040280013F0010F0CBF6FF08500002070476FF090
:104038008500704712070C00C3780F2B14D9C96B81
:104048000B480B0E00EA911013708B02090603F45B
:104058007C0301F0FE41034300200B4311686FF31A
:104068001E210B43136070476FF08500704700BF37
:1040780000FF030083680548054A83422CBF0120DE
:104088000020934228BF0020704700BFC0BC000832
:10409800F0BC000810B50C46054905F036F800B12B
:1040A800006800232060E3606360024BA36010BDDA
:1040B8007D4000081CBF000808B50449D2E9002368
:1040C80004F088FD6FF0150008BD00BFAEE10008E0
:1040D80013B54FF400630024044A0549CDE90043B1
:1040E800044B04F05BFD204602B010BDC8E1000897
:1040F800D4E1000898CD000804292DE9FF470546BA
:10410800144607D8224904F065FD6FF0150004B085
:10411800BDE8F087506805F005F88146A06805F00D
:1041280001F800228246E068114603F057FC00229D
:1041380007462069114603F051FC00228046606959
:10414800114603F04BFC06464FF48073524639463D
:104158000293104BCDE900034346484605F02EFC78
:10416800031E07DA28460C4A0C4904F033FD6FF0A9
:104178000400CCE7CDF808802846A36832460849F1
:10418800CDE90073636804F009FD0020BFE700BFB4
:10419800EFE10008402A002403E2000810E20008CA
:1041A8001FE200082DE9F7431F46136806460D462F
:1041B8005868144601A91022DDF8289003F00EFC77
:1041C800019BC9F800001B7873B12368586804F094
:1041D800A9FF3860A8B91A49304604F0FBFC6FF013
:1041E800120003B0BDE8F083DFF85880404606F0BF
:1041F800A0FE10B1D8F808300BB91349ECE7C7F89E
:104208000080019B1B780BB90020EAE72B68022B82
:1042180006D830460D4904F0DDFC6FF01500E0E7E4
:104228002368102201A9986803F0D8FBC9F8000098
:104238002B68013B2B60236804332360E4E700BF4D
:1042480044E20008B8B9000866E2000895E20008F0
:1042580030B501298BB00546CDE9022103D82B4999
:1042680004F0B8FC10E0134606A91022586803F0C1
:10427800B5FB069B1B7863B92549284604F0AAFCC0
:104288002449284604F08AFC6FF0150420460BB038
:1042980030BD05AB02AA03A92846009304ABFFF77B
:1042A80081FF04460028F1D1039B032B0AD9029B06
:1042B80002460146986803F091FB024682B9164906
:1042C8002846CDE7DDE9040107AA05F067FE0246A6
:1042D80020B11249284604F07DFCD5E7089AEDE79D
:1042E800DDE9040183689B6843B19847044640B1FF
:1042F80022460B49284604F06DFCC7E76FF05704C7
:10430800F6E70849284604F049FCBFE7A7E2000899
:10431800B9E20008D0E2000827E30008FEE200083E
:1043280038E3000850E300082DE9F0410229AAB05B
:104338000546CDE9022103D8394904F04BFC10E0C9
:10434800134607A91022586803F048FB079B1B78FF
:1043580053B93449284604F03DFC3349284604F053
:104368001DFC6FF0150449E006AB02AA03A9284614
:10437800009305ABFFF716FF044600283ED1DDF891
:104388000C80B8F1020F02D828492846D5E719AFA2
:1043980008AE0224029B1022002153F824000134A5
:1043A80003F01CFB47F8040B44456FEA000046F88D
:1043B800040BEFD104F1804419AA023CDDE905673A
:1043C800A40039463046234605F0F2FD20B11849CD
:1043D800284604F0FFFB0FE01649284604F0DEFBF0
:1043E800234608AA3946304605F0DCFD002809DADC
:1043F8001149284604F0D2FB6FF0040420462AB085
:10440800BDE8F081224608A919A807F0ADF80446CE
:1044180020B90A49284604F0C1FBEFE70849D7E765
:10442800A7E20008B9E2000860E3000891E3000889
:10443800AEE30008C5E30008D0E30008EAE300089B
:10444800F5E300082DE9F0438BB0064605ABCDE94E
:104458000221009302AA04AB03A9FFF7A3FE0446B6
:1044680040BB039B022B0FD9029B0246014698686A
:1044780003F0B4FA07464FF00009B94506DB1549C1
:10448800304604F08BFB15E00127F4E7A7EB09059C
:10449800DDF8148006AA0498102D4146A8BF1025FF
:1044A8002B4605F07FFD48B16FF004040A493046F9
:1044B80004F090FB20460BB0BDE8F08341462B4644
:1044C80006AA3046FDF730FF08EB0501A94405911F
:1044D800D3E700BF97CD00080AE4000870B58AB09A
:1044E800054606ABCDE90221009302AA05AB03A954
:1044F800FFF758FE044670B9DDE9050607AA3146FC
:1045080005F04CFD044648B16FF015040246094910
:10451800284604F05FFB20460AB070BD099B32466E
:10452800054928460193089B0093079B04F036FB36
:10453800F1E700BF17E4000846E400082DE9F04F52
:104548004F4D85B0DFF83C9104462B684FF00008CA
:10455800DFF834A10191D9F80010DFF830B119441F
:10456800DAF800305B1A934228BF13460093009B89
:104578002F68984511D3DAF80020BA4249D80022AA
:10458800434B204611461A7004F073FB41492046FC
:1045980005B0BDE8F04F04F001BBDBF80030D9F8F6
:1045A800006003939A1B009B9A4228BF1A46019BFE
:1045B80003EB0801384B0292981906F0A6FF029AFD
:1045C800039B16449044B342C9F80060CFD1334AE4
:1045D800334E1268306817442F4A394605F0E8FC14
:1045E80028B133683A462F49204604F0F3FA2E4E94
:1045F80020462E49326804F0D1FA2B68DBF80020F7
:1046080013442B603368013333600023C9F800304A
:10461800ADE7DFF87080D8F80030D9198A422BD876
:104628001E4A16681C4A3E441D4F3146386805F03C
:10463800BFFC78B10022164B204611461A7004F0D0
:1046480018FB3B6832461749204605B0BDE8F04FD5
:1046580004F0C0BA144E20461449326804F09EFA99
:104668002B68D8F800201344326801322B6032607E
:10467800DAF80020934282D205B0BDE8F08F00BF7F
:104688008C290024842900249029002498290024B6
:104698003F2A0024BBE40008402A0024942900246F
:1046A8009C29002486E4000888290024A9E400083D
:1046B8002DE9F04387B0044605ABCDE9022100930C
:1046C80002AA04AB03A9FFF76DFD0546B8B9029B22
:1046D80002460146986803F081F9049F0646BB68C4
:1046E8003846DB6898470268B6FBF2F302FB1363AF
:1046F8004BB16FF004052849204604F06BFA2846B0
:1047080007B0BDE8F0834FF48078DFF89090424519
:10471800C9F8008006D9224920466FF01B0504F02D
:1047280059FAECE7B8FBF2F35343B3F5807F0CD0AA
:104738001C492046C9F8003004F03EFAD9F8003088
:1047480042461949204604F037FA184B2046059A84
:104758001F60174B17491A60174B184A1E60002331
:104768001360174A1360174A1360324604F016FAAA
:10477800154B1E7826B11549204604F02BFABEE7E2
:104788000122204612491A7004F008FA32461149EB
:10479800204604F06EFAB2E7C5E400089829002420
:1047A800E5E4000818E500083DE500089C29002418
:1047B800942900246FE50008902900248C290024FE
:1047C80084290024882900243F2A00249DE5000824
:1047D800D7E50008454500082DE9F04387B00646AF
:1047E80005ABCDE90221009302AA04AB03A9FFF7A8
:1047F800D9FC0446B0B9029D01461022A86803F00E
:10480800EDF8074610222146E86803F0E7F8B7F507
:10481800805F0BD96FF015044FF48052324930464F
:1048280004F0D8F9204607B0BDE8F08301282F4BE3
:1048380038BF01208146BC4210D1DDE90458AB687D
:104848009B687BB13A46414628469847044660B182
:1048580022462749304604F0BDF9E3E703F8014B47
:104868000134E8E76FF05704F2E72249304604F0D4
:1048780095F93B461D4A4146284605F099FB0446F2
:1048880010B102461C49E5E71C49304604F086F998
:104898003B461B4A4146284605F084FB041E05DAC0
:1048A80022461849304604F079F9BBE73A461449DC
:1048B8000E4809F1FF3906F057FE30B1124930466B
:1048C8006FF0040404F086F9ACE71049304604F0B0
:1048D80065F9B9F1000FB0D1002CA3D10C493046CD
:1048E80004F05CF99EE700BFE3E5000884190024A2
:1048F80038E3000801E600080CE60008C5E30008F4
:104908008409002423E60008F5E3000847E60008C8
:1049180055E60008004870472CC700082DE9F04705
:104928000D1E8EB00646924679DBD0F80480AA1890
:104938004FEAE5734FF00001D8F80C0043F100038B
:10494800904271EB03036AD3BAF1000F6AD03822A0
:104958006846376906F000FE4FF480724FF48063B2
:104968004FF0FF393846CDE9062397F8AF3013F0FA
:10497800010F0CBF4FF400534FF44053039305F05D
:104988008AFB294900243069019505F08BFBD8F88A
:104998000C3053451CD1C7236946306900930794EE
:1049A80005F080FBD8F80C30AAEB030A304605F076
:1049B80017FCBAF1000F03D0002CE2D06FF01504F9
:1049C80030694C3005F006FB20460EB0BDE8F08794
:1049D80007F1740307F17C0045EA0A0C5A785AB1CA
:1049E80009FA02F13CEA010106D114B16178914259
:1049F80002D21A781C46009202338342EED15CB18F
:104A08006946306905F04EFB627801230024934023
:104A18001D44AAEB030AC9E76FF01504C6E76FF057
:104A28001504D1E75446CFE734C700082DE9F04311
:104A38000D1E8FB0074690461E4663DB4068AA19D4
:104A48004FEAE5734FF00001C06843F1000390425C
:104A580071EB030356D3002E57D0342201A806F079
:104A68007BFD4FF480733869069390F8AF3013F0EC
:104A7800010F0CBF4FF400534FF44053039390F8C9
:104A8800AC30322B009314BF4FF440634FF4806373
:104A980007934FF04073099305F0FDFAB6F5807F50
:104AA800B1464FEA15221A4928BF4FF48079386970
:104AB80009EB0503013BB2EB132F1CBF5FFA85F925
:104AC800C9F5807905F0EEFA0446386994B94B4681
:104AD80042466946019505F0C0FA044650B9384681
:104AE800A6EB090605F07CFBC8444D44044608B90A
:104AF800002ED3D138694C3005F06CFA20460FB03F
:104B0800BDE8F0836FF01504F8E73446F6E700BF18
:104B180034C700082DE9F04FB1B04768D0F81090BD
:104B280004461CAA0021B86905F008FD061E0FDB23
:104B38001C9B00221979186805F012FD061E07DB78
:104B4800954ED6F80880D8F800302BB96FF00406D7
:104B5800304631B0BDE8F08F3946304698470546B3
:104B68000028F3D1D8F80C30002BEFD005AA39462D
:104B7800304698470028E9DB059A284639690346F4
:104B88000130B2FBF0F5A94203D2B0F5807FF6D12F
:104B98000346C9F804304846FA6892FAA2F3002A94
:104BA800B3FA83F308BF4FF0FF33013BC9F8103065
:104BB8003B7D013BC9F8143001F076FB0146002823
:104BC800C4D1484606F069F980460028BED10122C2
:104BD80009F14C00114606F035FA0122414609F167
:104BE8005C0006F02FFABB6820469847182308AAED
:104BF8004146206905F0FEF906460028A6D1674B14
:104C0800089A9A4240F073819DF826300AAD012B2C
:104C180096BF01331023DB00EB180193019BAB42D5
:104C280000F02681EA792B7843EA0223B3F57F4F17
:104C380040F01481EB7869799B00AA7909022879F8
:104C4800502B41EA02411CAA28BF50230143206986
:104C580005F0D0F92769002840F00A8107F1740AA5
:104C68004FF001097867B867494609F101095246CA
:104C78001CA85FFA89F90AF1020A05F022F9B9F1CC
:104C8800050FF1D1EB780A2B85BF269B01224FF443
:104C98008073C3F3031388BF02FA03F3A7F87C30C9
:104CA8001C9BC3F34143012B2AD107AA1CA9284600
:104CB800FFF7C2F930BB9DF81C309A0722D09B073A
:104CC80006D53749206905F0EDF9002840F0D08075
:104CD800002134220FA806F03FFCB7230EA9206953
:104CE8000E934FF48073149305F0DCF9002840F01C
:104CF800BF8097F8AF3043F0010387F8AF3001E089
:104D0800022BF6D040F204730DF10C0B4FF0000AA1
:104D1800ADF80C30FF2387F87F301BF8019B04ABFC
:104D28001CA928464A4605F058F800280FDB9DF8CC
:104D380010309DF8112087F8AD309DF8123087F8B3
:104D48007F9087F8AE3012B1134487F8AE300AF17D
:104D580001094FF0010AB9F1020FDED197F87F304F
:104D6800FF2B00F0858006AA1CA9284605F0BDF88F
:104D78000028A2BF9DF81830C3F3420387F87E309D
:104D8800236993F87E30062B72D8DFE803F0676951
:104D98000B6D6969690000BFB8B7000853464450F5
:104DA80034C7000840274FF0010A02AA514620469E
:104DB80005F0F9F900285BDB9DF808303B424DD13E
:104DC8003B434E4920698DF8083005F06BF90028FF
:104DD8004CD10EAA0121204605F0E5F9002845D15D
:104DE8009DF838309907F4D5002134220FA8D4F85B
:104DF80010B0079106F0B0FB01214FF480739DF8C5
:104E0800082014938A454FF080730E9117939BF8EE
:104E18007E3052D18B428DF81C2061D10DF11D02DC
:104E28000221204605F0BFF9002821DB07AA4B46DE
:104E38000EA9206905F011F9002819DB204605F0B4
:104E4800CFF9002814DB02AA5146204605F0ABF939
:104E580000280DDB9DF808301F4209D00835DDE633
:104E680002274FF0020AA0E78027FAE70028BBDAFA
:104E780022696368B2F87C0002F10805D968134614
:104E880093F874403CB193F87540B8F1000F01D025
:104E9800444500D2A04602339D42F1D1B8F1000F3B
:104EA80028D0012303FA08F35C1E044208BF034616
:104EB8001367B1FBF3F3D3664AE63120012B8DF873
:104EC8001D200E9002D0043B012B0CD807AA01210B
:104ED800204605F068F90028CADB01230E93A5E7F0
:104EE80007AAD146A3E70DF11D0289469FE76FF097
:104EF80015062DE66FF012062AE600BF34C7000833
:104F08000048704778C70008044BB3F880389B0204
:104F18000B60002318464B60704700BF00E0F11F8C
:104F2800064B186828B94FF0100C4FF40030C3E94D
:104F380000C0012010600B60704700BFA02900244A
:104F48000B4A5369DB0312D5002910DD00F1006319
:104F580000F01F000144BFF34F8F2039C2F85C32C4
:104F680020330029F9DCBFF34F8FBFF36F8F7047F1
:104F780000ED00E003681A6912F0C06F00D0196EE6
:104F88000E4959610E490A4202D06FF00400704779
:104F9800D3F8102112F0C06F01D0D3F8600109488E
:104FA8000A42C3F8140107D007490A42EDD0D3F8E2
:104FB80014210A43C3F81421002070470F00EF1F83
:104FC8000000EE150F00EF9F000008802DE9F84360
:104FD80017461A46064688461C4605F033F968B354
:104FE80084B3EFF31189102383F31288BFF36F8F13
:104FF800012383F31388144D6B6943F480736B6149
:10500800BFF34F8FBFF36F8F224608F10061384618
:1050180006F07BFA002383F313886B6923F480730B
:105028006B61BFF34F8FBFF36F8F89F31188BFF3A5
:105038006F8F3069BDE8F843FFF79CBF6FF015002C
:10504800BDE8F8832046FBE700ED00E0F7B505462C
:10505800144A0023684606F0A0F92869DDE90067CC
:10506800FFF788FF0446D8B16FF00404204603B068
:10507800F0BD002AF8D132463B46684606F0B2F940
:10508800DDE9003213430CBF012200222B691B68A3
:1050980019694907EDD4D3F810315B07E9D4E5E77E
:1050A8000246F3E78038010010B503691C6829B18E
:1050B800FFF7CCFF88B16FF0040019E0E368DA0766
:1050C80017D4D4F80C31DB0711D50D4BC4F80431D3
:1050D80003F18833C4F8043109E0E36843F00103BD
:1050E800E360D4F80C3143F00103C4F80C3100201C
:1050F80010BD034B636003F188336360E1E700BFD1
:10510800230167452DE9F84F0369B1F5801F9046E3
:105118002E4A1B680746926901F1006935BF03F101
:105128000C0603F5867603F1100A03F5887A3468CD
:1051380014F0010403D06FF00400BDE8F88FFFF706
:1051480085FF0028F7D109F120024B46D3E9000179
:10515800B1F1FF3F08BFB0F1FF3FECD108339A42ED
:10516800F4D1336843F002033360BFF34F8F08EB89
:10517800040158F804204B6809EB0401C1E9002335
:10518800BFF34F8F06F007F90A220023FBF760F8F8
:1051980010F1640541F1000BDAF800305B0709D51E
:1051A80006F0F9F80A220023FBF752F885427BEB58
:1051B8000101F1DA0834202CD9D13846FFF746FF2F
:1051C800336823F002033360B7E700BF00200052C2
:1051D800013A2DE9F04781468A465718DFF878806A
:1051E8001E4E574501D2002012E0D9F81030BAF50A
:1051F800801F4FEA5A451C68D8F818302ABF083D66
:105208000C3404F586742368DB0703D56FF00400BB
:10521800BDE8F0874846FFF719FF0028F6D1236854
:105228002D0223F4E06305F4E065236023681D4341
:1052380045F004052560236843F080032360BFF32D
:105248004F8F4846FFF702FF23683340236000284A
:10525800DCD10AF5003AC4E700200052FBF8FFFF52
:105268002DE9F843012307460C46154604F0FFFFD5
:1052780088B355B3386904F0DEFF00213846FFF7DC
:1052880013FF28BB154E21462A46384604EA06096C
:105298002C44FFF79DFF804604F5FF34484604F58B
:1052A800FF743440A4EB0901FFF74AFE0121384698
:1052B800FFF7FAFEB8F1000F08BF0546386918BFB6
:1052C8006FF00405043001F05DFB2846BDE8F88363
:1052D8006FF00408EAE76FF01505F6E70000FEFF37
:1052E8002DE9F843D0F80490904607460D46D9F8C2
:1052F80008001E4604F096FCB8F5001F044616D1B7
:10530800D9F808402846FEF72FFD84420CD12946DB
:1053180004F088FC044604F08AFC2046FEF712FDDF
:105328000021204604F08CFC0020BDE8F883B8F585
:10533800800F20D0B6F1806F19D0B6F1C06F18D0A9
:10534800B6F1007F1AD102263A460F492046FEF7E9
:10535800D9FCB0B9D9F80810284604F09AFC2046C0
:10536800314604F06DFC2046FEF7B4FCDCE701266C
:10537800EAE70326E8E76FF08500D6E76FF0150047
:10538800D3E76FF00F00D0E7C1A400082DE9F04380
:10539800804685B08946134C0027134E002515E03A
:1053A800236849468DF8092001A80193A368EB40BA
:1053B80003F001038DF80830237C93428ABFE36829
:1053C800334653F8253001350393C04794F9043028
:1053D800EAB29D42E4DB013718340B2FDED105B069
:1053E800BDE8F0838CC8000898CD000838B503F0F4
:1053F80099FE48B100231824064A04FB03F18D18CE
:105408005158814201D1284638BD01330B2BF4D1C4
:105418000020F9E78CC80008F0B505468BB0506845
:10542800FFF7E4FF0446B0B90146182204A806F0C5
:1054380093F8214B214928460193214B214A009397
:10544800214B039503F0AAFB03A92048FFF79EFF11
:1054580000200BB0F0BD90F9042028461C49002616
:1054680003F09CFB1B4FA26828461B4903F096FBE0
:105478001A49284603F092FB94F904309E42E7DA71
:10548800F2B2217CA36828469142154923FA06F313
:105498008CBFE2683A4603F0010388BF52F8262021
:1054A800002B3346009206F101060CBF20222A2267
:1054B80003F074FBE0E700BF0AE90008F1E8000820
:1054C8000EE90008ECE80008E3E80008AD5A000817
:1054D80015E9000898CD000822E900083FE900080E
:1054E8005AE900082DE9F7434FF0000805464868D7
:1054F8000F461646CDF80480FFF778FF044648B9F2
:1055080028467A682D4903F065FB6FF0150003B053
:10551800BDE8F083036801AA41463360B868FDF727
:1055280009F8019A0346002A41D0BA68414694F91D
:1055380004C0FF2361455FFA81FE02DA207C7045D2
:1055480008D8FF2B37D128461D4903F043FB6FF0DD
:105558000100DCE7E06802F1FF3850F82170013FF4
:1055680018F8019F17F8010FB9F15F0F04D120282F
:10557800F6D05F28F4D018E0484516D10028EFD1BE
:10558800A068C840C00706D528460E4903F022FB8C
:105598006FF00C00BBE7FF2B06D028460A4903F042
:1055A80019FB6FF00D00B2E773460131C2E7A2683C
:1055B800C240D207E8D400203371A8E771E9000897
:1055C800B1E900088EE900089CE9000837B51146E2
:1055D8006A4605460124FFF785FF28B1284603F0EF
:1055E8002EFB204603B030BD9DF80430009804FA25
:1055F80003F183685B69984704460028F1D00246A6
:105608000249284603F0E6FAEBE700BFCCE90008B8
:10561800F0B585B01146054602AAFFF763FF30B121
:105628000124284603F00BFB204605B0F0BD029884
:105638009DF80C600769836801A95B689847041E98
:1056480007D010DB22460B492846002403F0A6FAAF
:10565800EAE73B68019C5C400123B3401C40003CE6
:1056680018BF0124EEE722460349284603F0B2FAA0
:10567800DAE700BF8DD20008CCE9000830B515463E
:1056880085B00446294602AAFFF72CFF014601907F
:1056980028B1204603F0D3FA012005B030BD01AA95
:1056A800E868FCF747FF019B0246002BF1D19DF803
:1056B8000C3001210298003A01FA03F1036918BF7E
:1056C80001221B680B40003B18BF01239A428368E4
:1056D80014BFDB681B69984701900028DDD002469B
:1056E8000249204603F076FA0198D6E7CCE900088B
:1056F8002DE9FF411746884602AA05463946FFF7B5
:10570800F1FE0446019030B1284603F098FA0120D2
:1057180004B0BDE8F081FE683046FAF7C5FD3346AF
:10572800304498420ED184F48033C4F3404204F4E8
:105738000031C3F300439A4253D05349284603F03B
:1057480049FAE1E713F8012B752A05D8632A08D826
:10575800302A40D0312A41D04C49284603F03AFA41
:10576800D2E7A2F164011129F6D801A656F821F072
:10577800D3570008615700086157000861570008AF
:105788002B570008C15700086157000861570008E7
:10579800D95700086157000861570008C757000823
:1057A80061570008615700086157000861570008F1
:1057B80061570008CD57000844F48034B1E744F439
:1057C8000034AEE744F01004ABE744F02004A8E747
:1057D80044F00104A5E744F4A014A2E744F4C0147B
:1057E8009FE704F03003302B01D12949A6E719B10E
:1057F800E30258BF44F4A01404F48813B3F5881FD7
:1058080001D124499AE704F44023B3F5402F01D18C
:10581800214993E7B8F1050F0AD101AA0021386997
:10582800FCF788FE019A20F47F43134329D10443EF
:1058380002989DF80C10E602D0F808C0076907D551
:1058480014F4402F1EBF44F3000303F440235C40CC
:1058580001263B6824F48012E40706FA01F64CBFDF
:105868003343B3433B60DCF800309847019000288D
:105878003FF44EAF02460949284603F0ABF90198B8
:1058880046E707495AE700BFE6E90008D7E90008F4
:1058980006EA000827EA000858EA0008CCE90008E8
:1058A80082EA000810B500231446D360994207D055
:1058B8000133202BFAD1002323600023636010BD3D
:1058C8000A460348034901F0F1FF014BF4E700BF22
:1058D800402B0024B8EA00080A4610B50C460146D9
:1058E8000248FFF7DFFF0023A36010BDB82900249A
:1058F8000A4610B50C4601460248FFF7D3FF0023BD
:10590800A36010BDBC2900240A4610B50C46014608
:105918000248FFF7C7FF0023A36010BDC029002479
:105928000A4610B50C4601460248FFF7BBFF0023A4
:10593800A36010BDC42900240A4610B50C460146D0
:105948000248FFF7AFFF0023A36010BDC829002459
:105958000A4610B50C4601460248FFF7A3FF00238C
:10596800A36010BDCC2900240A4610B50C46014698
:105978000248FFF797FF0023A36010BDD029002439
:105988000A4610B50C4601460248FFF78BFF002374
:10599800A36010BDD42900240A4610B50C46014660
:1059A8000248FFF77FFF0023A36010BDD829002419
:1059B8000A4610B50C4601460248FFF773FF00235C
:1059C800A36010BDDC2900240A4610B50C46014628
:1059D8000248FFF767FF0023A36010BDE0290024F9
:1059E8000A2830B502D900230B6030BD18220B4BB2
:1059F80042439C58E2697AB112686AB115685DB190
:105A080052680A600022CA60054A4A60182202FBEE
:105A180000335B698B60E8E72268F2E78CC800080E
:105A28000EE900082DE9F8430025DFF86090184BCF
:105A38000821184A044603F096F859F82560082109
:105A4800154A2046336803F08EF8F36953B90635D2
:105A5800124A0821204603F086F8422DEDD1002095
:105A6800BDE8F8831E68002EF1D03368002BEED015
:105A7800B04600273368BB42E9D958F8043F0821EB
:105A8800074A2046013703F06EF8F3E78CC8000890
:105A98000EE90008BBEA0008CEEA000897CD000826
:105AA80047D0000873B50C461148FFF76FFC237DFB
:105AB8002569002B2068E969A2690CBF20232A23E5
:105AC800A1B1096891B10E6886B14968657DCDE9D3
